:0B1104000000000000000000DFF622E9
:10101200C2AFC2A07F32121104D2A07F0612110405
:0B102200A2A0920630A0FDD2AFA206F3
:01102D0022A0
:020F8900AE07B1
:100F8B00C2AF7D01ED601AC2A000005E7004C2A06A
:100F9B008002D2A07F06121104D2A0ED25E0FD80C5
:030FAB00E3D2AFDF
:010FAE002220
:100EBE00C2AF7D01ED601EC2A00000D2A0000020D6
:100ECE00A005F452068003ED42067F06121104EDD2
:090EDE0025E0FD80DFD2AFAF0674
:010EE70022E8
:10106000121012920520050A7FCC120F897F4412BC
:051070000F89A205B389
:011075002258
:100E900012101292052005227FCC120F897FBE12FC
:100EA0000F89120EBEAC07120EBEEFFEAD047C0021
:0D0EB000E42DFFEC3E8FF012046FA205B39D
:010EBD002212
:08000300201809161200000686
:10102E007E01EE60135F6004D2A38002C2A3D2A23F
:0A103E00C2A2EE25E0FE80EAD2A374
:011048002285
:10104900E4FF7E01EE600F30A3024207D2A2C2A2E2
:06105900EE25E0FE80EE32
:01105F00226E
:10108A00D2A4EF25E04480FF12102EAF0512102ED5
:03109A00C2A422CB
:1010D300D2A4EF25E04481FF12102E121049C2A4BE
:0110E30022EA
:060F11008B138A14891500
:100F1700D2A47FBE12102EE4FDAB13AA14A9158D1F
:100F2700827583001203BFFF12102E0DBD08EAC29F
:010F3700A415
:010F38002296
:060F39008B168A178918CF
:100F3F00D2A47FBF12102EE4FD121049AB16AA17D0
:100F4F00A9188D82758300EF1203EC0DBD08EAC25C
:010F5F00A4ED
:010F6000226E
:060BC3008B0B8A0C890D6A
:100BC9007B007A00790E120F39E42514FFE43420F2
:100BD900AB0BAA0CA90D8FF012046FAB0BAA0CA9D1
:100BE9000D900002E5121203EC900003E5111203C7
:100BF900EC900004E5101203EC900005E50F1203D8
:100C0900EC900006E50E1203EC900007E5130203D1
:010C1900ECEE
:100E2000E4F512120444F5119000071203BFF51007
:100E30009000021203BFF50F9000031203BFF50EDE
:100E40009000041203BFF50D9000051203BFF50CCE
:100E50009000061203BFF50B7B007A00790B020F9E
:010E60001180
:100FF400C2A4C2A2E4FF1210D3EF30E710E4FD7FD5
:0D1004000712108A7BFF7A007903120E207C
:0110110022BC
:0311260025262853
:100CC200033601010186000000000000000330012C
:070CD20001010333FFFFFFE6
:100C6F00E4F50974362509F8E6FF74302509F8E62E
:100C7F00FE6F601DC2A5EE600AE50990112693FF75
:100C8F00120E6174362509F8E6FF74302509F8A6AF
:100C9F0007C37801E294E818E29403400CE4F52FBF
:100CAF00120613E47800F208F20509E509C394036C
:020CBF0040B142
:010CC1002210
:100AAA00E53325E0FFA295E4334FF533E53425E03D
:100ABA00FFA296E4334FF534E53525E0FFA297E42B
:100ACA00334FF535E4FF74332FF8E6540FFE7017F1
:100ADA0074362FF8E4F6EF25E02401F8E22401F257
:100AEA0018E23400F28013BE0F1074362FF8760124
:0E0AFA00EF25E02400F8E4F208F20FBF03C875
:010B080022CA
:10109D007580FFC291D292D293AF80C293EF20E7B9
:0110AD00F64C
:0110AE00221F
:1010E400AE0712109DC291C2928E80D293C29322F7
:1010F400AE0712109DD291C2928E80D293C29322D7
:051117007F010210E45D
:05111C007F0F0210E44A
:051121007F0C0210E448
:1010AF00ED7004AC078004EF2440FCEC4480FF0299
:0210BF0010E43B
:100F61008B0E8A0F89101210AFAB0EAA0FA91012A7
:100F710003A660130510E5107002050F14F91203A2
:080F8100A6FF1210F480E22229
:08110F001210AFAF030210F44F
:101076007F381210E47F0C1210E47F061210E47F12
:04108600010210E46F
:100B09005A68616F2057656E206A6965005169638B
:100B19006875616E676E616F7A686F6E6700000055
:100B2900001F0000000000000E00001F0000000070
:100B39000E000E001F00001F15151B111F00001EBF
:100B4900081E0A0A0A1F0004001F0A111100001FCB
:0E0B590011111F11111F00040E0E0E1F000EB1
:100CD900C104C103011D00011E00011F000219000A
:070CE90000011B00011C00CB
:10080B00E4F508D2AF7F01FE120A3F120FF412106B
:10081B0076C2A5120FD51210607BFF7A0B7909E413
:10082B00FD7F02120F617BFF7A0B79167D01E4FFCE
:10083B00120F613004FDC2041211177F011208A8B8
:10084B007F0112076D120C1A120C6F300331C203A9
:10085B00E51F702B120FAF20001F20010F12111775
:10086B007F011208A87F0112076DD201300110120F
:10087B000C1AE4FF1208A88006121117120D9830FB
:10088B0004C6C204E51F70C00508E508C3941E40EA
:0D089B0005E4F508D2A5E4FF12076D80AB5F
:02076D008F0BF0
:10076F007B007A00790C120E90121060E50DAE0C22
:10077F007804CEA2E713CE13D8F8F50D8E0CB51A68
:10078F0009E519B50C04E50B6071E50DAE0C7807A2
:10079F00CEA2E713CE13D8F8541F60237B2D7D0113
:1007AF007F0C12110FE50D75F020A4F50D85F00CDF
:1007BF00F4FFE50CF4FEEF2401F50DE43EF50CAE6D
:1007CF000CAF0D7C007D0A12040EEF24307810F26E
:1007DF00AE0CAF0D7C007D0A12040EED24307811A3
:1007EF00F2087443F2E408F27BFE7A0079107D017F
:0B07FF007F0D120F61850C19850D1A8B
:01080A0022CB
:100A3F00E4FCFDFB7A10790EF812048EE47BE87A61
:100A4F0003F9F8120DDC8F0C8E0B8D0A8C09C3E4A1
:100A5F00950CF50CE4950BF50B7401950AF50AE46A
:100A6F009509F509E50C2421F50CE4350BF50BE49C
:100A7F00350AF50AE43509F509AF0CAE0BAD0AFCE2
:100A8F0078081204DD8F1D850C1E5389F0438901F0
:0A0A9F00851D8C851E8AD2A9D28C19
:010AA900222A
:03000B00020B677E
:100B6700C0E0C0F0C083C082C0D075D000C000C054
:0D0B770001C002C003C004C005C006C007D5
:100B8400851D8C851E8A051CE51CC394C8401275FE
:100B94001C00D203051BE51B940A4005751B00D2FB
:040BA40004120AAA83
:100BA800D007D006D005D004D003D002D001D000A1
:0B0BB800D0D0D082D083D0F0D0E0324B
:100FD500E4F5097F401210E4E4F509E509900B27D3
:0E0FE50093FF1210F40509E509C3944040ED96
:010FF30022DB
:100EE8007765656B00416C61726D200053657420F5
:100EF8002064617900536574202054696D6500533E
:090F0800657420416C61726D00FA
:100CF000C100C181C102012307012430012E00017E
:0B0D00002F0501220001250001210049
:1010C100EFD39400400B7E197D0EDDFEDEFA1F800A
:0110D100EF2F
:0110D20022FB
:100C1A007B007A007926120BC3E52AC4540F2430CC
:100C2A007810F2E52A540F243008F208743AF2E5F3
:100C3A002BC4540F243008F2E52B540F243008F249
:100C4A0008743AF2E52CC4540F243008F2E52C5407
:100C5A000F243008F2E408F27BFE7A0079107D0155
:050C6A007F01020F6193
:1008A800E521B52906EF7003020935E526C4540F82
:1008B80024307810F2E526540F243008F2E526C4D7
:1008C800F854F0C8E527C4540F48540F2430781260
:1008D800F2E527540F243008F208742DF2E528C4F5
:1008E800540F243008F2E528540F243008F2087415
:1008F8002DF2E529C4540F243008F2E529540F24B9
:100908003008F2E408F27BFE7A007910FDFF120F3E
:1009180061852921852D227BFF7A0E79E8E4FD7F08
:0D0928000A120F61AB22E4FD7F0F12110FC8
:01093500229F
:100D98007BFF7A0E79EDE4FD7F06120F61E523C42F
:100DA800540F24307810F2E523540F243008F20849
:100DB800743AF2E524C4540F243008F2E524540FA1
:100DC800243008F2E408F27BFE7A0079107D017F76
:040DD80006020F619F
:100FAF002002047B0780027B207D017F0B12110F33
:100FBF00E52AB5230EE52BB52409200203B29022B2
:060FCF00D29022D2902214
:1009C2007806E2FC08E2FDECC4F854F0C8EDC45429
:1009D2000F48540F24307810F2ED540F243008F2EF
:1009E20008742DF27808E2FFC4540F24307813F211
:1009F200EF540F243008F208742DF27809E2FFC494
:100A0200540F24307816F2EF540F243008F2087491
:100A12002DF2E408F27BFF7A0E79F4FD7F04120FC7
:100A2200617BFE7A0079107D017F01120F61780DE2
:0D0A3200E25407F522FB7D017F0A02110F3F
:100D0C00780AE2FFC4540F24307810F2EF540F2409
:100D1C003008F208743AF2780BE2FFC4540F243016
:100D2C007813F2EF540F243008F2E408F27BFF7AC8
:100D3C000E79FDFD7F04120F617BFE7A0079107D28
:060D4C00017F01020F61AE
:100D5200780EE2FFC4540F24307810F2EF540F24BF
:100D62003008F208743AF2780FE2FFC4540F2430CC
:100D72007813F2EF540F243008F2E408F27BFF7A82
:100D82000F7907FD7F03120F617BFE7A0079107DD8
:060D9200017F01020F6168
:1006CA00E51F64017037E525B40703E4F525E52540
:1006DA0014601214601114601014600F1460122454
:1006EA0005701480328036803A803E7D017F078013
:1006FA006E7D017F0880687D017F0A8062E51F6444
:10070A0002702CE525B40403E4F525E52514600DF3
:10071A00146010240270127D017F0180427D017FE6
:10072A0002803C7D017F0480367D017F058030E5B3
:10073A001F6403702DE525B40403E4F525E52514AB
:10074A00600D146010240270127D017F0180107DFB
:10075A00017F02800A7D017F0480047D017F0512EA
:03076A0010AF22AB
:10000E00E51F6401600302019FE52514605614602C
:10001E00791470030200BE1470030200FF14700303
:10002E00020136240560030201737806E2FC08E241
:10003E00FD54F0FFE4C4F854F0C8EFC4540F48F573
:10004E002E052EE52ED394094003E4F52EE52E75EC
:10005E00F010A4FFED540FFDEC45F07806F2ED4FD5
:10006E00080201E27806E2FE08E2FF540FF52E05C3
:10007E002EE52ED394094003E4F52EEF54F0FFEE57
:10008E007806F2EF452E080202257808E2FF54F0BA
:10009E00C4540FF52E052EE52EC394024003E4F54D
:1000AE002EE52EC454F0FEEF540F4E780802026077
:1000BE007808E2FF540FF52E052EEF54F0FFC454CE
:1000CE000FFEBE0109E52ED39402400C8007E52EEB
:1000DE00D394094003E4F52EE52E4F7808F2E52E71
:1000EE002430FB7D017F0512110F7D017F05020279
:1000FE00717809E2FF54F0C4540FF52E052EE52E4B
:10010E00D394034003E4F52EE52EC454F0FEEF54D1
:10011E000F4E7809F2E52E2430FB7D017F07121178
:10012E000F7D017F070202717809E2FF540FF52E51
:10013E00052EEF54F0FFC4540FFEBE0305532E01DF
:10014E00800AE52ED394094003E4F52EE52E4F7870
:10015E0009F2E52E2430FB7D017F0812110F7D017F
:10016E007F08020271780DE2FF540FF5220522E599
:10017E0022D394064003E4F522EF54F04522780D85
:10018E00F2AB227D017F0A12110F7D017F0A02025E
:10019E0071E51F640260030202A7E525146048148E
:1001AE00700302023824026003020274780AE2FF2E
:1001BE0054F0C4540FF52E052EE52EC394035005AE
:1001CE00532E038003E4F52EE52EC454F0FEEF54B7
:1001DE000F4E780AF2E52E2430FB7D017F011211BD
:1001EE000F7D017F01807C780AE2FF540FF52E050A
:1001FE002EEF54F0FFC4540FFEBE020CE52EC39436
:10020E0004500C532E07800AE52ED394094003E4C4
:10021E00F52EE52E4F780AF2E52E2430FB7D017F78
:10022E000212110F7D017F028039780BE2FF54F02C
:10023E00C4540FF52E052EE52ED394055005532EDE
:10024E00078003E4F52EE52EC454F0FEEF540F4E56
:10025E00780BF2E52E2430FB7D017F0412110F7D09
:10026E00017F040210AF780BE2FF540FF52E052E1E
:10027E00E52ED394094003E4F52EEF54F0452E7885
:10028E000BF2E52E2430FB7D017F0512110F7D014F
:10029E007F051210AF532E0F22E51F640360030279
:1002AE0003A5E52514604514700302033B24026088
:1002BE0003020377780EE254F0C4540FF52E052E88
:1002CE00E52EC394035005532E038003E4F52EE56B
:1002DE002E2430FB7D017F0112110F7D017F011253
:1002EE0010AFE52EC454F0FF780E8077780EE2FF43
:1002FE00540FF52E052EEF54F0C4540FFFBF020C11
:10030E00E52EC39404500C532E07800AE52ED39489
:10031E00094003E4F52EE52E2430FB7D017F021209
:10032E00110F7D017F021210AF780E8064780FE2FC
:10033E0054F0C4540FF52E052EE52ED3940550051A
:10034E00532E078003E4F52EE52E2430FB7D017F2E
:10035E000412110F7D017F041210AFE52EC454F06C
:10036E00FF780FE2540F4FF222780FE2540FF52E62
:10037E00052EE52ED394094003E4F52EE52E243008
:10038E00FB7D017F0512110F7D017F051210AF78E5
:08039E000FE254F0452EF2229B
:10061300E51F7028E52F60030206C9751F017806E0
:10062300E526F208E527F208E528F208E529F2783D
:100633000DE52DF21211171209C2804DE52F640149
:10064300701DE51FB40118751F02780AE52AF20828
:10065300E52BF208E52CF2121117120D0C802AE596
:100663002F64027032E51F6402702C751F03780C2F
:10067300F27BFE7A007906120E20780EE523F2084B
:10068300E524F2121117120D52E4F5251206CA12CF
:10069300111C7F010210C1E52F64037029E51F645B
:1006A300037023F51F780EE2F52308E2F5241211F7
:1006B300217F011210C1121117120C1A7F011208A7
:0706C300A87F0112076D2260
:100E61008F0AE50AB42505052F020613E50AB42603
:100E71000FE51F7006B200A200920105250206CA05
:0F0E8100E50AB42809E51F7002B20212000E2222
:03000000020936BC
:0C093600787FE4F6D8FD75813802097D59
:1003A600BB010689828A83E0225002E722BBFE0255
:0903B600E32289828A83E4932288
:1003BF00BB010CE58229F582E5833AF583E02250F3
:1003CF0006E92582F8E622BBFE06E92582F8E2223D
:0D03DF00E58229F582E5833AF583E4932257
:1003EC00F8BB010DE58229F582E5833AF583E8F047
:1003FC00225006E92582C8F622BBFE05E92582C8F3
:02040C00F222DA
:10040E00C2D5EC30E709B2D5E4C39DFDE49CFCEE09
:10041E0030E715B2D5E4C39FFFE49EFE1204F0C38D
:10042E00E49DFDE49CFC80031204F030D507C3E488
:06043E009FFFE49EFE2278
:10044400BB010A89828A83E0F5F0A3E02250068783
:10045400F009E71922BBFE07E3F5F009E319228945
:0B046400828A83E493F5F07401932278
:10046F00BB010A89828A83F0E5F0A3F0225006F7D8
:0F047F0009A7F01922BBFE06F3E5F009F31922D5
:10048E00E88FF0A4CC8BF0A42CFCE98EF0A42CFC0D
:10049E008AF0EDA42CFCEA8EF0A4CDA8F08BF0A48B
:1004AE002DCC3825F0FDE98FF0A42CCD35F0FCEBEA
:1004BE008EF0A4FEA9F0EB8FF0A4CFC5F02ECD39AF
:0F04CE00FEE43CFCEAA42DCE35F0FDE43CFC221C
:100DDC00C2D5E830E70FB2D5E4C39BFBE49AFAE442
:100DEC0099F9E498F8EC30E717B2D5120E12120507
:100DFC0081E4C39BFBE49AFAE499F9E498F8800344
:100E0C0012058130D50DE4C39FFFE49EFEE49DFDE9
:040E1C00E49CFC2234
:1004DD00E8600FECC313FCED13FDEE13FEEF13FFFD
:0304ED00D8F12221
:1009420002080BE493A3F8E493A34003F68001F2B8
:1009520008DFF48029E493A3F85407240CC8C333B6
:10096200C4540F4420C8834004F456800146F6DF85
:10097200E4800B0102040810204080900CC2E47E47
:10098200019360BCA3FF543F30E509541FFEE4937A
:10099200A360010ECF54C025E060A840B8E493A341
:1009A200FAE493A3F8E493A3C8C582C8CAC583CA6C
:1009B200F0A3C8C582C8CAC583CADFE9DEE780BE24
:010D0B0000E7
:1004F000BC000BBE0029EF8DF084FFADF022E4CCF0
:10050000F875F008EF2FFFEE33FEEC33FCEE9DECB8
:10051000984005FCEE9DFE0FD5F0E9E4CEFD22EDFE
:10052000F8F5F0EE8420D21CFEADF075F008EF2F48
:10053000FFED33FD4007985006D5F0F222C398FD39
:050540000FD5F0EA22D6
:1005450075F008758200EF2FFFEE33FECD33CDCC6D
:1005550033CCC58233C5829BED9AEC99E5829840F0
:100565000CF582EE9BFEED9AFDEC99FC0FD5F0D6CD
:10057500E4CEFBE4CDFAE4CCF9A88222B800C1B9F7
:100585000059BA002DEC8BF084CFCECDFCE5F0CB35
:10059500F97818EF2FFFEE33FEED33FDEC33FCEB6E
:1005A50033FB10D703994004EB99FB0FD8E5E4F929
:1005B500FA227818EF2FFFEE33FEED33FDEC33FC16
:1005C500C933C910D7059BE99A4007EC9BFCE99A0A
:1005D500F90FD8E0E4C9FAE4CCFB2275F010EF2F4F
:1005E500FFEE33FEED33FDCC33CCC833C810D7074F
:1005F5009BEC9AE899400AED9BFDEC9AFCE899F88A
:0E0605000FD5F0DAE4CDFBE4CCFAE4C8F9221C
:00000001FF
