:020000040800F2
:10000000480F00200D370008890800088B080008F9
:100010008F080008930800089708000800000000F7
:100020000000000000000000000000009B08000825
:100030009D080008000000009F080008A1080008B3
:100040002737000827370008273700082737000818
:100050002737000827370008273700082737000808
:1000600027370008273700082737000827370008F8
:1000700027370008273700082737000827370008E8
:1000800027370008273700082737000827370008D8
:1000900027370008273700082737000827370008C8
:1000A00027370008273700082737000827370008B8
:1000B00027370008F33300086D340008273700089D
:1000C0002737000827370008273700082737000898
:1000D000273700084B360008273700082737000865
:1000E0002737000827370008273700082737000878
:1000F0002737000827370008273700082737000868
:100100002737000827370008273700082737000857
:100110002737000827370008273700082737000847
:100120002737000827370008273700082737000837
:1001300000F002F800F04DF80AA090E8000C8244AC
:100140008344AAF10107DA4501D100F042F8AFF289
:10015000090EBAE80F0013F0010F18BFFB1A43F0A5
:10016000010318478C8B0000AC8B0000103A24BFB1
:1001700078C878C1FAD8520724BF30C830C144BF0C
:1001800004680C607047000000230024002500264E
:10019000103A28BF78C1FBD8520728BF30C148BFEA
:1001A0000B607047662908F00784642905F0A6866D
:1001B000732906F02682002070471FB506F092FAD8
:1001C00004000020002107F09FFDE0601FBD10B576
:1001D00010BD06F0A1FB1146FFF7EFFF00F09AF803
:1001E00006F0BFFB03B4FFF7F2FF03BC03F0D2F944
:1001F00010B500F043FE02281ED0032802D00428C8
:100200004FD14BE05020F5490870492048704E20EE
:1002100088704720C870042404E0201FEF49085567
:10022000601CC4B2EE4800888442F6DBEC480188CA
:10023000EA4800F0FCFD35E0E949E84800F0E7FD58
:10024000E7480088002828DD0422E649E34805F055
:10025000A1FEC8B95020E1490870492048704E20DD
:1002600088704720C870042404E0201FDB4908552B
:10027000601CC4B2DA4800888442F6DBD8480188A2
:10028000D64800F0D4FD08E00422D749D34805F051
:1002900081FE10B90020D549087003E000F0ABFDE5
:1002A00000E000BF00BF10BD10B500F0E7FD022860
:1002B00002D004282BD127E0C949C84800F0A7FD87
:1002C000C748008800281EDD0422C749C34805F03E
:1002D00061FEC0B95020C14908704F2048704E20BF
:1002E00088704720C870042404E0201FBB490855CB
:1002F000601CC4B2BA4800888442F6DBB848018862
:10030000B64800F094FD03E000F075FD00E000BF8A
:1003100000BF10BD0024002500BF00BF002603F071
:10032000CFF84FF4A06003F011FA4FF4E13003F07E
:1003300040F941F61F4140F2F31003F02DF841F669
:100340001F41632003F065F800F09CFB00F0E7FC20
:1003500000F051FD0220A64908700120C87010E28B
:10036000012000F0ABFB0746002F78D0012F06D00C
:10037000022F2DD0032F54D0042F71D17CE0002404
:1003800023E001209B49088001220A219A4805F0B8
:1003900064F90546BDB12946974805F03BF90025AB
:1003A00064210A2005F026FC054635B1621C9148FF
:1003B000018892A005F038FD8DE0621C8D4801880F
:1003C0009C4805F031FD601C84B2032CD9DB80E031
:1003D000002423E002208749088001220A21864860
:1003E00005F03BF90546BDB12946834805F012F9F1
:1003F000002564210A2005F0FDFB054635B1621C8D
:100400007C4801887DA005F00FFD64E0621C7948FE
:100410000188884805F008FD601C84B2032CD9DBF4
:1004200057E0002425E003207249088001220A21B8
:10043000714805F012F90546CDB129466E4805F020
:10044000E9F8002564210A2005F0D4FB054645B1F2
:10045000621C6848018869A005F0E6FC3BE039E0D1
:1004600033E0621C63480188724805F0DDFC601CC3
:1004700084B2032CD7DB2CE0002423E004205D4968
:10048000088001220A215C4805F0E7F80546BDB165
:100490002946594805F0BEF8002564210A2005F0D8
:1004A000A9FB054635B1621C5248018853A005F0EE
:1004B000BBFC10E0621C4F4801885E4805F0B4FCAC
:1004C000601C84B2032CD9DB03E05BA005F0ACFC1C
:1004D00000BF00BF00BF00F0D1FC022808D00328F5
:1004E00002D004282BD127E058A005F09DFC27E07E
:1004F0006049614800F08BFC60A005F095FC5D4808
:1005000001885D4803F0ECF85FA005F08DFC5948C8
:100510000188594805F03BF8054615B15C4805F0DF
:100520000AF94FF48071544805F0C4FD0020514988
:10053000088000F060FC03E000F05DFC00E000BF1C
:1005400000BF5448008800F40040002843D000BF9A
:1005500051A1544805F00CFD060021D04D480088FB
:10056000C0F30D00A0F10A0206F10A014E4805F0A1
:100570005CFD484800780A384C4908700846007805
:1005800000280CD008460178474805F043F84FF49E
:100590008071454805F08EFD002044490870E7E071
:1005A00043A1404805F0E4FC060008D0307B104928
:1005B00008700846017842A005F036FCD8E047A153
:1005C000384805F0D5FC060006D0307C0849487054
:1005D000084641788CE0D4E08EE00000FC0000206A
:1005E00000000020B18A0008AC8A00080200002048
:1005F000E3000020F000002045070020B7A2CBCD8B
:100600005465726D696E616C5F53656C537461748F
:1006100020256420B2A2BDD3CAD5B5BDCDF8B9D8C6
:10062000D3A6B4F020B7A2CBCDB4CECAFD25640DBD
:100630000A000000AC8C00084B4559205343414E42
:100640002057726F6E670D0A0000000052465F521D
:10065000585F54494D454F555420696E204C6F7278
:10066000614D6573735F466F7277617264696E671F
:100670000D0A0000F6000020610700206C6F726117
:1006800020726563696576650D0A0D0A0000000039
:100690003D060020CC0000206C6F72612073656EF7
:1006A000643A0000750500200501002003000020C9
:1006B00061646472657373207365743A00000000AE
:1006C000C9E8D6C3BDDAB5E3B5D8D6B73A202564B4
:1006D00020CDEAB3C9210D0A0000000066697273DB
:1006E000742072656C6179207365743A00000000B3
:1006F00024A005F099FB3BE02AA12F4805F038FC27
:10070000060008D0707C2D498870084681782CA09E
:1007100005F08AFB2CE032A1274805F029FC0600F1
:1007200008D0307B2549C8700846C17830A005F054
:100730007BFB1DE033A1204805F01AFC060014D015
:100740001E48017833A005F06FFB1C48417836A0A5
:1007500005F06AFB1948817838A005F065FB174859
:10076000C1783BA005F060FB02E03FA005F05CFB18
:10077000C821114805F09EFC00204249088000BFB6
:100780000026EDE5C9E8D6C3D2BBBCB6BDDAB5E3F9
:10079000B5D8D6B73A20256420CDEAB3C9210D0AD1
:1007A000000000007365636F6E642072656C617990
:1007B000207365743A00000075050020E3000020F6
:1007C000C9E8D6C3B6FEBCB6BDDAB5E3B5D8D6B770
:1007D0003A20256420CDEAB3C9210D0A00000000AB
:1007E00067617465776179207365743A0000000071
:1007F000C9E8D6C3CDF8B9D8202564CDEAB3C9215C
:100800000D0A000073686F77206E6F6465206D6558
:10081000737300004C6F63616C2041646472657394
:10082000732025640D0A00004669727374205265B6
:100830006C61792025640D0A000000005365636F28
:100840006E642052656C61792025640D0A000000F9
:1008500047617465576179204164647265737320E0
:1008600025640D0A00000000C3FCC1EECEDEB7A86F
:10087000CAB6B1F0C7EBD6D8D0C2CAE4C8EB2121C2
:10088000210D0A00CC000020704700BFFEE700BF2A
:10089000FEE700BFFEE700BFFEE770477047704706
:1008A000704700000CB50020019000906C48006873
:1008B00040F480306A49086000BF6948006800F46D
:1008C000003000900198401C0190009818B90198E0
:1008D000B0F5A06FF1D16248006800F4003010B1AB
:1008E0000120009001E0002000900098012843D1F1
:1008F0005C48006840F010005A49086008460068EB
:1009000020F0030008600846006840F0020008601C
:100910005348406852494860084640684860084665
:10092000406840F4806048600846406820F47C10CD
:1009300048600846406840F4E8104860084600688F
:1009400040F08070086000BF4548006800F000700B
:100950000028F9D04248406820F003004049486030
:100960000846406840F00200486000BF3C484068CC
:1009700000F00C000828F9D10CBD10B5FFF792FF6C
:1009800010BD10B53648006840F0010034490860D9
:1009900008464068344908403149486008460068C4
:1009A000324908402E4908600846006820F480203B
:1009B00008600846406820F4FE0048604FF41F00BD
:1009C0008860FFF7DAFF4FF000602949086010BD2A
:1009D00010B5002100200022214B5B6803F00C01C0
:1009E00021B1042906D0082928D107E0214B224C47
:1009F000236027E01F4B204C236023E0184B5B68EB
:100A000003F47010164B5B6803F48032022303EB8F
:100A1000904022B9194B4343174C23600DE0104B13
:100A20005B6803F4003323B1144B4343124C23603F
:100A300003E0104B4343104C236003E00D4B0E4C7E
:100A4000236000BF00BF064B5B68C3F303130C4C6D
:100A5000E15C094B1B68CB40074C236010BD0000D4
:100A600000100240002002400000FFF8FFFFF6FEE9
:100A700008ED00E000127A000800002000093D00A7
:100A80000C00002008B50121142003F0E9F94FF40F
:100A90006070ADF8000048208DF8030069462B48CF
:100AA00002F022FF4FF48070ADF8000048208DF86E
:100AB00003006946264802F017FF08BD10B504463A
:100AC00014B10120234908702248007800283BD047
:100AD0004FF480711E4802F09AFF80B14FF400710C
:100AE0001A4802F094FF50B14FF48071174802F099
:100AF0008EFF20B18021154802F089FF20BB0A201B
:100B000002F01BFD0020134908704FF4807110485B
:100B100002F07DFF08B9012010BD4FF400710B48B1
:100B200002F075FF08B90220F6E74FF4807107481C
:100B300002F06DFF08B90320EEE78021034802F0C0
:100B400066FF08B90420E7E70020E5E70010014050
:100B5000000801401C00002070B50546002405E097
:100B6000601CC4B2C82C01DD002070BD02213948D0
:100B700004F03BFC0028F3D02946364804F0E2FBA1
:100B8000002405E0601CC4B2C82C01DD0020ECE7A5
:100B90000121304804F029FC0028F3D02D4804F04E
:100BA000D3FBC0B2E1E700B587B00121042003F018
:100BB00057F90121080303F060F9E020ADF81800AF
:100BC00018208DF81B0003208DF81A0006A9224872
:100BD00002F08AFEE021204802F033FF0020ADF849
:100BE00004004FF48270ADF806000020ADF8080054
:100BF0000220ADF80A000120ADF80C004002ADF86B
:100C00000E003820ADF810000020ADF812000720CB
:100C1000ADF8140001A90F4804F0BEFA01210D48F7
:100C200004F05FFBFF20FFF797FF07B000BD10B592
:100C30000446084800884FF6C771084005490880F7
:100C400008460088204308800121024804F049FB3F
:100C500010BD0000003001400008014010B50446FE
:100C60008B480078A04200D110BD894804708948A3
:100C70000470007801282BD1002001F0ADFB8648DC
:100C80000068407800F07F0040F0800082490968E9
:100C90004870814800684178012001F053FB012031
:100CA00001F09AFB00207C49096881F83D007A49EF
:100CB000096881F83E000222774801683D314020F2
:100CC00001F026FB6F227549012001F043FB18E07B
:100CD000002001F081FB70480068407800F07F0040
:100CE0006D49096848706C4800684178012001F03E
:100CF00029FB012001F070FB6F226849012001F0FF
:100D000029FB00BFB0E710B50020654908606420EA
:100D100002F013FC01206349C1F8AC0110BD10B50D
:100D20005E48401E604908605B49086001F078FA3F
:100D3000FFF7E9FF642002F000FC0120554908702C
:100D400008460078FFF78AFF01F06CFB10BD5148A0
:100D50000078704710B504464E48007818B9204610
:100D600000F0A4F802E0204601F036FB10BD10B5FB
:100D70004848007810B900F064F910BD01F0B7FBE5
:100D8000FBE710B54348007810B900F0B9F910BD81
:100D900001F0C6FBFBE710B53E48007810B900F043
:100DA000A3F910BD01F0B0FBFBE710B5394800789E
:100DB00010B900F0BAF910BD01F0D4FBFBE710B593
:100DC0003448007808B900BFFEE701F0CEFB10BD43
:100DD00010B53048007810B900F0AAF910BD01F044
:100DE000C8FBFBE710B52B48007810B900F0A3F959
:100DF00010BD00BFFEE710B52648007818B90120E5
:100E000000F09CF902E0012001F0B6FB10BD70B5C6
:100E100004460D461F48007820B92946204600F0B8
:100E200095F903E02946204601F0AEFB70BD70B590
:100E300004460D461748007820B92946204600F0A0
:100E400094F903E02946204601F0ADFB70BD10B5D2
:100E50001048007810B900F0D8F910BD01F0B1FBCE
:100E6000FBE710B504460B48007818B9204600F09F
:100E700065F902E0204601F07FFB10BD10B5054882
:100E8000007810B900F0C4F910BD01F09DFBFBE73C
:100E90001E0000201D0000209C00002006030020F2
:100EA000AC812142008021423C00002070B5044604
:100EB0000025FE480068407820F0F800FC490870E2
:100EC0000846007884421CD0032C01D1012500E0A3
:100ED0000025F8480078854204D0F6480570284679
:100EE00001F06EFAF1480068407800F0F800204305
:100EF000EE4909684870ED4800684178012001F02A
:100F000021FA70BD10B5E94801684231422001F074
:100F10003CFA10BD10B50020E7490870FFF7F2FF5A
:100F20006F22E649012001F015FA0020DF49096827
:100F30004870DE4800684178012001F003FA202063
:100F4000DA4909688872D9480068817A0A2001F074
:100F5000F9F92020D54909680873D4480068017B55
:100F60000C2001F0EFF9D648407E012804D11E2064
:100F7000CE490968487303E00E20CC4909684873DC
:100F80000820CA49096881F82600AA20C7490968CB
:100F9000C877FF20C549096808749320C3490968C8
:100FA00081F827006920C149096881F8280081205B
:100FB000BE49096881F829007E20BC49096881F88A
:100FC0002A009620B949096881F82B00BC48007EA8
:100FD000802141EA0010B549096881F8300000F02D
:100FE00096FFB748807EB149096881F832006F22C8
:100FF000B249012001F08CF9B149086800F01AFCEF
:10100000AF49486800F0B6FCAD49886800F0FCFCC8
:10101000AB4800210269A5480068123000F0DFFEED
:10102000A74800214269A1480068133000F0D7FEAC
:10103000002001F05BF80120FFF738FF00F048FCCA
:1010400010BD10B599480168491C012001F09DF9B7
:1010500096480068407820F0F80010BD2DE9F04770
:101060000222924801681D311D2001F073F98F4959
:101070000968897F8D4A1268527F41EA022007F091
:10108000CAF8804607F06AF8824607F0C4F80646B8
:1010900000228C4B07F026F9044607F05FF8BDE804
:1010A000F0872DE9F0470222804801681B311B20A0
:1010B00001F050F97D490968097F7C4A1268D27EA7
:1010C00041EA022007F0A7F8804607F047F8824679
:1010D00007F0A1F8064600227A4B07F003F9044610
:1010E00007F03CF8BDE8F08710B5704801680C3196
:1010F0000C2001F04AF96D480068007B400910BDE2
:1011000070B56A4801681131112001F03EF9674954
:101110000968487C07F096F8044600224FF08043A7
:1011200006F0C4FE81F0004170BD6748007870474A
:10113000664903C970476648006870475E49087091
:10114000704700B50120FFF7F9FF00BD70B50546F7
:101150000C4660480088208000205E490880228874
:101160005D49284604F061FF70BD70B504460D4628
:101170005A48058002882146574804F056FF072048
:101180004D49087070BD30B54848006890F8270098
:1011900000F00700421C4548006890F83000C30981
:1011A0004248006890F8300000F0060008B10120C5
:1011B00000E0002004463D48006890F832103B48AB
:1011C000006890F8300000F01000102801D10220D3
:1011D00000E000200546D01820440844284480B28E
:1011E00030BD3248006890F82600304B1B6893F8F9
:1011F000253040EA03212D48006890F8270000F0D0
:101200000700421C881880B270472B48007870474E
:101210002DE9F04F8BB001200990274800780C2869
:1012200043D2DFE800F00607A3FDFCFBFAF9F8F76C
:10123000F6F5E7E21D48006890F8300000F0100075
:10124000102805D14C201949096881F8400004E0B4
:101250000C201649096881F84000E120134909680B
:1012600081F841000222114801684031402001F01C
:101270004FF80520FFF71AFE4FF48071164804F06E
:1012800019FF0F49486806F0DDFFCDE90201FFF7BD
:101290007AFF019006F0D6FF80460022104B07F03F
:1012A00021F80646DDE902231CE0AAE23C0000200A
:1012B0007800002079000020410000200603002073
:1012C0002000002080844E40640000205800002050
:1012D00060000020500000207503002070000020F6
:1012E0000000204006F0E2FD0022F74BCDE90401AA
:1012F00006F0F8FFCDE9060106F096FC089006F02E
:101300008AFF04460022F14B06F014FD824606F0E7
:1013100055FF80B2EE4908600846006800EB5000B7
:10132000086008460068EB490860EB480068EB4934
:101330000860EB490860A020EA49096881F8350097
:10134000E848006890F83510352000F0FBFF0020D9
:10135000E5490870E5490870E5490870E5490870F5
:10136000E54908800220E54908704BE2E44800683E
:10137000012809D1DC48007830B90120DA49087029
:10138000D5480068D6490860DD48006801281ED1AC
:10139000D548007801281AD1D4480078B8B901207E
:1013A000D2490870FFF7ACFED64A03C2FFF779FEB8
:1013B000D5490860FFF798FED4490870C648006810
:1013C000C6490860C64908600320CC490870C74870
:1013D0000078B8B9C4480078012813D1BE48006825
:1013E000BF490968401ABB49096888420AD90120E7
:1013F000C2490870BB480068407B40F020010D20C6
:1014000000F0A0FFB9480078D8B9B748007808E0E4
:10141000F1E1EAE19DE138E110E1FCE0E8E0DEE045
:1014200010E070B9B248007858B9AB480068AB49D1
:101430000968401AA6490968884202D90520AF49BF
:101440000870DFE1AC480088B0F5807F03DD06203E
:10145000AA490870D6E1AA480C380068012853D17F
:10146000A5480088A8B9A348007890B99D480068AD
:1014700090F8300000F08000802804D101219E48BF
:1014800000F095FF05E09748006890F832009A490F
:1014900008809948008897490978401A9149096855
:1014A00091F8351001F03F01884217DD8D4A12682E
:1014B00092F8352002F03F01954A8E4B1B78D018E8
:1014C00000F075FF8748006890F8350000F03F0095
:1014D0008849097808448749087015E0864A1278D7
:1014E000844B1B78D21AD1B2894A824B1B78D01810
:1014F00000F05DFF804800787E490978401A7D49F8
:10150000097808447B49087082480068012856D150
:1015100071480068714908607748008890BB754839
:10152000007878BB6F48006890F8300000F08000C9
:10153000802804D10121704800F039FF05E0694896
:10154000006890F832006C4908806B4A1278694B49
:101550001B78D21AD1B26E4A664B1B78D01800F0B5
:1015600026FF6548007863490978401A614909787F
:1015700008446049087001205D49087004205F49F3
:1015800008701CE0FFE75C4A12785A4B1B78D21AAD
:10159000D1B25F4A574B1B78D01800F008FF56486D
:1015A000007854490978401A524909780844514949
:1015B000087001204E4908700420504908704C48BA
:1015C000007858B94448006844490968401A4049BD
:1015D0000968884202D905204849087012E10020B4
:1015E000444908700120454908700220099009E12A
:1015F000002040490870404908803A480068407B14
:1016000040F020010D2000F09DFE01203B490870B4
:1016100003200990F6E0002036490870364908801A
:1016200030480068407B40F020010D2000F08AFE29
:1016300001203249087006200990E3E00120294981
:10164000096881F8400020202649096881F8410096
:101650000222244801684031402000F059FE9820C1
:101660002049096881F835001E48006890F8351057
:10167000352000F067FE0320FFF718FC08201F4903
:101680000870002024490870BCE01D480C38006830
:1016900001285DD11348006890F8300000F0800008
:1016A000802803D101211D4800F078FE1B480088E6
:1016B000002837DD19480088402833DC17480078B7
:1016C0001749087031E0000000408F400000F03FF3
:1016D0004400002048000020C000002068000020D6
:1016E0006C0000203C0000204C0000204D00002039
:1016F0004E00002052000020500000204100002039
:101700001881224258000020600000206400002060
:101710007503002028812142530000207000002022
:101720004000002020203A490870394801783948A3
:1017300000F034FE384800783549097808443649C5
:101740000870364800683649086009203549087035
:1017500058E03548006870BB344800882E49097845
:10176000401A2B49097888420FDD2A492A4A127803
:1017700088182749097800F011FE27480078244985
:10178000097808442449087015E0284A1278224B49
:101790001B78D21AD1B21F4A1F4B1B78D01800F009
:1017A000FDFD224800781C490978401A1A49097839
:1017B0000844194908701E480068012809D11748D3
:1017C0000068174908600A20164908700120FFF7D1
:1017D0006DFB1248006812490968401AB0F57A7F1B
:1017E00002D90B200F4908700CE000200D49087049
:1017F0000420099006E000200A490870052009909D
:1018000000E000BF00BF09980BB0BDE8F08F0000FA
:10181000400000207503002053000020C00000207D
:1018200074000020410000200C8122427000002042
:10183000288121422DE9F0410446FB4804602046FE
:1018400006F000FD05460022F84B06F02FFB074688
:1018500006F0B4FC0446200CF54909688871200A9A
:10186000F3490968C871F24909680C720322F0480B
:101870000168891D062000F04BFDBDE8F0812DE9CF
:10188000F0410322EA480168891D062000F062FD4C
:10189000E748006880790004E5490968C97940EAA9
:1018A0000120E3490968097A0843DF4908600868AC
:1018B00006F0C8FC06460022DC4B06F013FD044689
:1018C00006F07CFCD849086008460068BDE8F08155
:1018D00038B56946092000F058FDFFF7D0FF0446EF
:1018E0000020D34909684872D1480068417A09202C
:1018F00000F028FDCF48FFF79DFFCD4801683B3140
:101900003B2000F042FDCA48006890F83B0000F020
:10191000BF0040F04000C649096881F83B00C44858
:10192000006890F83B103B2000F00CFDC0480168B7
:101930003B313B2000F029FD05E0BD4801683B310B
:101940003B2000F022FDBA48006890F83B0000F010
:1019500020002028F1D09DF80000B54909684872A0
:10196000B3480068417A092000F0ECFC2046FFF7FC
:1019700061FF38BD2DE9F0410446AB484460204684
:1019800006F060FC05462A460B460020AA4906F0F0
:101990008DFA074606F012FC84B2200AA4490968B1
:1019A0008870A3490968CC700222A1480168891C8B
:1019B000104600F0ADFCBDE8F0812DE9F0410222B7
:1019C0009B480168891C104600F0C4FC98480068D8
:1019D000C07897490968897840EA012092494860AF
:1019E000486806F02FFC064632460B460020924916
:1019F00006F05CFA044606F0E1FB80B28A494860D2
:101A000008464068BDE8F0812DE9F041044686486B
:101A1000846087480168091D042000F0B6FC204658
:101A200006F010FC05460022804B06F03FFA074600
:101A300006F0C4FB84B27E480068007900F0C00064
:101A4000210A21F0C00108437949096808717849E1
:101A500009684C71022276480168091D042000F0D3
:101A600057FCBDE8F0812DE9F04102227048016881
:101A7000091D042000F06EFC6D48006800796FF0CD
:101A8000C00101EA00206A490968497908436649AA
:101A90008860886806F0D6FB06460022634B06F095
:101AA00021FC044606F08AFB80B25F498860084644
:101AB0008068BDE8F08110B504465D4801680931D1
:101AC000092000F062FC5A4801684D314D2000F0B9
:101AD0005CFC57480068407A00F08000802841D1C3
:101AE0005348006890F84D0000F0870087281CD10B
:101AF000052C00DA0524142C00DD14244C48006861
:101B0000407A00F08F0040F070004949096848723F
:101B100047480068407A00F0F000611F01F00F01B3
:101B200008434349096848723AE0022C00DA02246B
:101B3000112C00DD11243E480068407A00F08F002F
:101B400040F070003A490968487239480068407AA4
:101B500000F0F000A11E01F00F01084334490968AC
:101B600048721DE0B4F1FF3F01DA4FF0FF340E2C54
:101B700000DD0E242E480068407A00F08F0040F00F
:101B800070002B490968487229480068407A00F0C3
:101B9000F000611C01F00F010843254909684872F3
:101BA00023480068417A092000F0CCFB1E480473EA
:101BB00010BD10B51E4801680931092000F0E5FB91
:101BC0001B4801684D314D2000F0DFFB18480068CC
:101BD000407A00F08000802819D11548006890F8FC
:101BE0004D0000F00700072808D111480068407A2E
:101BF00020F0F000401D0C49087310E00C4800680C
:101C0000407A20F0F000801C0749087307E008487C
:101C10000068407A20F0F000401E03490873024833
:101C200090F90C0010BD00002000002080844E4080
:101C30003C000020008F423380847E412DE9FF5F0D
:101C400083468A46002018BB0AF1020006F0E3FA38
:101C5000064632460B4600204FF0804105F0F4FA6C
:101C6000CDE90001584606F0EDFA8046DDE9002393
:101C700006F038FB02460B46CDE902010020FD4983
:101C800006F014F9044606F099FA04B0BDE8F09F96
:101C90000AF1030006F0BFFA02460B46CDE9000147
:101CA00000204FF0804105F0CFFACDE902015846FF
:101CB00006F0C8FA0646DDE9022306F013FB0446E7
:101CC00022460B460020EB4906F0F0F8804606F06D
:101CD00075FADAE72DE9F74F88B08A469346002473
:101CE000A14600BF0027DFF8908300BF72E04FF0ED
:101CF00010096AE0002008BBA01C06F08CFA02461E
:101D00000B46CDE9000100204FF0804105F09CFA20
:101D1000CDE90401484606F095FACDE90201DDE976
:101D2000042306F0DFFA02460B46CDE90601002047
:101D3000D04906F0BBF805460E4620E0E01C06F050
:101D40006AFA02460B46CDE9000100204FF08041BF
:101D500005F07AFACDE90401484606F073FACDE9B8
:101D60000201DDE9042306F0BDFA02460B46CDE987
:101D700006010020BF4906F099F805460E4608986E
:101D800006F060FA2A463346CDE9040106F038FC35
:101D900021F000413A464346CDE9060106F066FAD5
:101DA0000FD2089806F04EFA2A463346CDE90601CE
:101DB00006F026FC21F0004807468AF800908BF8D0
:101DC000004009F1040000F0FF09B9F1180F91DD9E
:101DD000601CC4B2082C8ADB0BB0BDE8F08F7CB568
:101DE00004460E461546002001900090A348006866
:101DF0001230844203D106F06000207001E0002020
:101E000020706A4601A92846FFF764FF9DF8040088
:101E1000102804D014280AD018281CD111E02078EA
:101E20009DF8001001F007010843207014E02078AD
:101E30009DF8001001F0070141F0080108432070EF
:101E40000AE020789DF8001001F0070141F0100130
:101E50000843207000E000BF00BF884800681230CF
:101E6000844206D12178122000F06CFA8448056182
:101E700005E02178132000F065FA814845617CBDBA
:101E800070B50446002500262078C0F3C10020B1BB
:101E9000012804D0022806D103E0102604E014260D
:101EA00002E0182600E000BF00BF207800F0070124
:101EB0003046FFF7C3FE0546704800681230844282
:101EC00003D128466E490D6170BD28466C494D61AD
:101ED000FAE710B50446694801683031302000F057
:101EE00054FA6648006890F8300000F0EF0040EACD
:101EF00004106249096881F830006048006890F871
:101F00003010302000F01EFA5D48047610BD10B588
:101F10005A4801683031302000F037FA57480068DD
:101F200090F83000C0F30010554908760846007E4E
:101F300010BD10B50446514801680D310D2000F068
:101F400024FA4E480068407B00F0EF0040EA04109D
:101F50004A490968487349480068417B0D2000F0F0
:101F6000F1F94748447610BD10B5444801680D3179
:101F70000D2000F00AFA41480068407BC0F30010D1
:101F80003F4948760846407E10BD10B504463B48A0
:101F9000006880F832403948006890F832103220EA
:101FA00000F0D0F93648847610BD10B5334801688A
:101FB0003231322000F0E9F93048006890F8320000
:101FC0002F4988760846807E10BD10B504462B4800
:101FD00001684D314D2000F0D8F9284801680931D9
:101FE000092000F0D2F925480068407A00F080000E
:101FF000802807D1012C0AD187202049096881F85F
:102000004D0004E084201D49096881F84D001B48FB
:10201000006890F84D104D2000F094F910BD10B5F7
:10202000164801684D314D2000F0AFF913480068A3
:1020300090F84D0000F00700072801D1012010BDE5
:102040000020FCE710B504460C480168093109205E
:1020500000F09BF909480068407A00F07F002043B7
:1020600006490968487205480068417A092000F06D
:1020700069F910BD80847E41D01263413C0000208C
:102080002000002010B5644801680931092000F0E3
:102090007CF961480068407A20F07F0010BD10B5DF
:1020A00004465D4801680A310A2000F06EF95A487A
:1020B0000068807A00F0F00024F0F00108435649EF
:1020C0000968887254480068817A0A2000F03AF959
:1020D00010BD10B5504801680A310A2000F055F9CA
:1020E0004D480068807A20F0F00010BD10B504461D
:1020F000494801680E310E2000F047F9002C04DA3F
:102100001F2020EA0404641C644243480068807B6A
:1021100004F01F0140EAC1003F49096888733E4846
:102120000068817B0E2000F00DF910BD704770B57E
:102130000024394801683B313B2000F026F936483D
:10214000006890F83B0000F0FE003349096881F810
:102150003B003148006890F83B103B2000F0F2F85B
:102160002D480168491C012000F00FF92A48006839
:102170004578042028490968487027480068417854
:10218000012000F0DFF82548066800BF23480068FA
:10219000801BFBD0204801683B313B2000F0F5F864
:1021A0001D48006890F83B0000F0FE00401C1A49F2
:1021B000096881F83B001848006890F83B103B2004
:1021C00000F0C0F8144801683C313C2000F0DDF814
:1021D0001148006890F83C0000F07F040E48006849
:1021E00090F83C0000F08000802801D1604244B2A9
:1021F0002946012000F0A6F8204670BD10B504461F
:10220000FFF795FF201A40B210BD10B50446FFF746
:102210008EFF204440B210BD3C000020C0000020D2
:1022200000B587B001210C2001F01AFE012108033E
:1022300001F016FE1020ADF818008DF81B000320E9
:102240008DF81A0006A95F4801F04EFB10215D4889
:1022500001F0F7FB01205C4908604FF48960ADF89C
:10226000180028208DF81B0006A9584801F03CFBF7
:102270004FF40060ADF8180010208DF81B0003200B
:102280008DF81A0006A9514801F02EFB4FF40061A9
:102290004E4801F0D6FB01204D49C1F8AC01E020C9
:1022A000ADF8180018208DF81B0003208DF81A00D7
:1022B00006A9444801F018FBE021424801F0C1FBA7
:1022C0000020ADF804004FF48270ADF80600002045
:1022D000ADF80800ADF80A00ADF80C004FF400703E
:1022E000ADF80E001820ADF810000020ADF8120077
:1022F0000720ADF8140001A9364802F04DFF012176
:10230000344802F0EEFFFF20FEF726FC07B000BDC8
:102310002DE9F04105460E46174600202A4908607F
:1023200045F08000FEF718FC002404E0305DFEF765
:1023300013FC601CC4B2BC42F8DB012022490860D7
:10234000BDE8F08113B50446012201A92046FFF73C
:10235000DFFF1CBD2DE9F04105460E461746002063
:102360001949086005F07F00FEF7F6FB002405E040
:102370000020FEF7F1FB3055601CC4B2BC42F7DB15
:10238000012011490860BDE8F08170B504460D4692
:10239000012229462046FFF7DDFF70BD70B50446D7
:1023A0000D462A4621460020FFF7B2FF70BD70B5EA
:1023B00004460D462A4621460020FFF7CBFF70BD9C
:1023C000704700000008014090012142000C0140CC
:1023D000008021420030014070B504460025FE48CF
:1023E0000068407820F0F800FC4908700846007842
:1023F00084420ED0F8480068407800F0F80020438E
:10240000F54909684870F448006841780120FFF7F1
:1024100099FF70BD08B50020009069464220FFF783
:10242000B4FF08BD10B50020ED490870FFF7F2FFBA
:102430006F22EC490120FFF78DFF2020E649096853
:1024400008736F22E7490120FFF762FFE649086839
:1024500000F016FCE449887900F05CFDE249C87997
:1024600000F091FDE049087A00F0BAFDDE494879B4
:1024700000F00CFDDC49487A00F012FE40F2FF301B
:1024800000F01AFFD849087E00F06DFE012000F030
:1024900047FF1F20D0490968C872CF480068C17A39
:1024A0000B20FFF74FFFD0480068D04988420DD974
:1024B000002000F0B5FE002000F075FE0E20CA4995
:1024C000087191F9040000F029FC0CE0802000F074
:1024D000A7FE012000F067FE1420C349087191F99E
:1024E000040000F01BFC0120FFF776FF10BD10B5C3
:1024F000B9480168491C0120FFF747FFB64800684A
:10250000407820F0F80010BD10B5B34801680C31D8
:102510000C20FFF73AFFB0480068007B400910BD6F
:1025200070B5AD4801681B311B20FFF72EFFAE4888
:102530000068AE4988420AD2A7490968C87E05F0FA
:1025400081FE04460022AA4B05F0F4FB70BDA249AF
:102550000968C87E05F076FE04460022A54B05F00A
:10256000E9FBF3E7A44800787047A44890F900001D
:102570007047A34903C9704799490870704700B56F
:102580000120FFF7F9FF00BD70B505460C469D48D8
:102590000088208000209B49088022889A4928468C
:1025A00003F043FD70BD70B504460D4697480580A5
:1025B00002882146944803F038FD052088490870B8
:1025C00070BD8748007870472DE9F84F4FF0010A39
:1025D000834800780B2874D2DFE800F0060774CC3B
:1025E000FDFCFBFA73F9F80043E30120FFF7F4FE6A
:1025F0009D2079490968487477480068417C11201A
:10260000FFF7A0FE7848C07A012816D17648007BF3
:102610007149096881F824006F4801681C311C2049
:10262000FFF7B3FE6C490968097F01F03F01784A62
:1026300052F8210000F024FB04E0FF2066490968FD
:1026400081F824006448006890F824102420FFF7E3
:1026500079FE00206049096881F83D005E490968FB
:1026600081F83E0002225C4801683D314020FFF7BE
:102670004FFE5D48807A012803D10620FFF7ACFEAB
:102680000EE055480068C07B5349096848735248BA
:102690000068417B0D20FFF755FE0520FFF79CFEEB
:1026A0004FF48071584803F005FD4F48406959497F
:1026B0000860594800685949086002204849087074
:1026C000D7E2D5E25648006801281ED1524800687A
:1026D000524908604448C07A01280FD13E48016839
:1026E0001C311C20FFF751FE3B490968097F01F0AE
:1026F0003F01474A52F8210000F0C2FA402112205F
:10270000FFF720FE0320364908704648006801287C
:102710001FD141480068414908603348C07A012808
:102720000FD12D4801681C311C20FFF72EFE2A49CD
:102730000968097F01F03F01354A52F8210000F095
:102740009FFA02211220FFF7FDFDFFF7DDFE2A4967
:1027500008702548807A01280BD12F4800682F493E
:102760000968401A2B490968884202D904201C498B
:1027700008707EE21848016812311220FFF705FE4A
:1027800015480068807C00F0200020280ED1202110
:102790001220FFF7D7FD1448807A012802D1104992
:1027A000087002E002200E49087062E269461920B2
:1027B000FFF7EBFD9DF8000000F08000A0B39DF84E
:1027C0000000C043401CC0F385002EE005E2E0E1BC
:1027D000D6E1ADE132E12BE19C000020BE000020FB
:1027E000A00000200603002080000020008F42335C
:1027F000008064C000A063C0B0000020A4000020DE
:10280000A8000020A200002075040020BC000020C9
:10281000B88A0008B8000020C0000020B4000020E2
:10282000288121421881224207E0F74908700846B2
:102830000078404240B2087004E09DF80000800833
:10284000F1490870F14801681A311A20FFF79DFD1F
:10285000EF480068EF49884239D2EB4890F9000010
:1028600000281DDAE84890F9000005F0D4FC044681
:102870000D46E6490968887E05F0E4FC80460022A2
:10288000E54B05F057FA064622462B4605F052FA6C
:10289000E24A03C2E1480CC8E1A003F0C5FA45E0F2
:1028A000DA490968887E05F0CDFC0646E34AE44B28
:1028B00005F018FD04460022D74B05F03BFAD74A35
:1028C00003C2D6480CC8D6A003F0AEFA2EE0CE481C
:1028D00090F90000002818DACB4890F9000005F0C4
:1028E0009AFC04460D46C9490968887E05F0AAFC91
:1028F00080460022D34B05F01DFA064622462B46A1
:1029000005F018FAC54A03C210E0C0490968887E7C
:1029100005F098FC0646C94AC94B05F0E3FC04469D
:102920000022C84B05F006FABC4A03C2B848807AB8
:1029300001282FD1B5480068C07BB44909684873A5
:10294000B2480068417B0D20FFF7FCFCB048407A9C
:1029500001280DD1AD48006890F82200BA490880DE
:10296000AA48006890F82210B848FFF720FD52E00E
:10297000A648016813311320FFF707FDA34800683C
:10298000C07CB1490880A1480068C17CAF48FFF70E
:102990000EFD40E09D48016810311020FFF7F5FC66
:1029A0009B48407A012819D19848006890F8220085
:1029B000A549088095480068007C944909684873D7
:1029C00092480068417B0D20FFF7BCFC8F480068EF
:1029D00090F822109D48FFF7EAFC1CE08B48016844
:1029E00013311320FFF7D1FC88480068C07C96495A
:1029F000088086480068007C8449096848738348D9
:102A00000068417B0D20FFF79DFC80480068C17C79
:102A10008E48FFF7CCFC7E48807A012802D18C4991
:102A2000087002E002208A4908704FF0020A20E193
:102A30000120874908704FF0030A1AE10120FFF7CF
:102A4000CBFC7348C07A01281AD1F5206F49096878
:102A500048746F48007B6D49096881F824006B4811
:102A600001681C311C20FFF790FC68490968097F48
:102A700001F03F01774A52F8210000F001F908E027
:102A8000F72062490968487400206049096881F8A4
:102A900024005E48006890F824102420FFF752FCC0
:102AA0005A480068417C1120FFF74CFC6A480078C6
:102AB0005649096881F822005448006890F82210AD
:102AC0002220FFF73FFC00205049096888734F48D7
:102AD0000068817B0E20FFF735FC4C480068807B46
:102AE0004A490968487349480068417B0D20FFF74F
:102AF00029FC4648006890F822105448FFF74EFC25
:102B000041204249096881F83D0040203F49096859
:102B100081F83E0002223D4801683D314020FFF728
:102B2000F7FB0320FFF758FC062049490870A0E096
:102B30004A480068012806D108211220FFF702FC4C
:102B400007204349087046480068012817D13048DB
:102B5000C07A01280FD12D4801681C311C20FFF7D5
:102B600014FC2A490968097F01F03F01394A52F8EB
:102B7000210000F085F802211220FFF7E3FB78E046
:102B80000120FFF729FC0020314908704FF0040AAA
:102B90006FE00120FFF720FCFA201C490968487407
:102BA0001A480068417C1120FFF7CCFB0020174930
:102BB000096881F83D001549096881F83E00022244
:102BC000124801683D314020FFF7A2FB0720FFF7C4
:102BD00003FC0A201E4908704BE021480C380068AD
:102BE000012844D104211220FFF7ACFB1C480068E7
:102BF000012837D101211220FFF7A4FB012014493D
:102C000008704FF0080A32E0A40000209C00002069
:102C100080000020008F4233008064C0A8000020A4
:102C200052435620525353492056414C5545204952
:102C300053203A2566200D0A000000001B9E5E29E5
:102C4000CB10F13F00A063C0A2000020750400205B
:102C5000A0000020B88A0008BC0000202881214282
:102C6000188122420020054908704FF0070A00E051
:102C700000BF00BF5046BDE8F88F0000A000002054
:102C80002DE9F0410446FA480460204605F0DAFADE
:102C900005460022F74B05F009F9074605F08EFAC4
:102CA0000446200CF44909688871200AF249096831
:102CB000C871F14909680C720322EF480168891D47
:102CC0000620FFF725FBBDE8F0812DE9F041032246
:102CD000E9480168891D0620FFF73CFBE6480068CB
:102CE00080790004E4490968C97940EA0120E24991
:102CF0000968097A0843DE490860086805F0A2FA05
:102D000006460022DB4B05F0EDFA044605F056FAC4
:102D1000D749086008460068BDE8F08110B5044650
:102D2000D548016809310920FFF72FFBD248016817
:102D300049314D20FFF729FBCF480068407A00F069
:102D40008000802841D1CC48006890F8490000F00C
:102D5000870087281CD1052C00DA0524142C00DDFF
:102D60001424C5480068407A00F08F0040F07000DD
:102D7000C14909684872C0480068407A00F0F00014
:102D8000611F01F00F010843BB49096848723AE02E
:102D9000022C00DA0224112C00DD1124B648006850
:102DA000407A00F08F0040F07000B3490968487223
:102DB000B1480068407A00F0F000A11E01F00F0158
:102DC0000843AD49096848721DE0B4F1FF3F01DADC
:102DD0004FF0FF340E2C00DD0E24A7480068407A27
:102DE00000F08F0040F07000A34909684872A248C3
:102DF0000068407A00F0F000611C01F00F01084308
:102E00009D49096848729C480068417A0920FFF78B
:102E100099FA9748047110BD10B5974801680931B7
:102E20000920FFF7B2FA9448016849314D20FFF7B5
:102E3000ACFA91480068407A00F08000802819D1EF
:102E40008D48006890F8490000F00700072808D175
:102E500089480068407A20F0F000401D84490871DC
:102E600010E085480068407A20F0F000801C80491E
:102E7000087107E080480068407A20F0F000401EAA
:102E80007B4908717A4890F9040010BD10B50446DA
:102E9000794801681D311D20FFF777FA76480068F0
:102EA000407F64F31F1074490968487772480068CE
:102EB000417F1D20FFF746FA6D48447110BD10B5E3
:102EC0006D4801681D311D20FFF75FFA6A480068F0
:102ED000407F0011664948710846407910BD10B521
:102EE00004466548016830313120FFF74EFA6248E8
:102EF000006890F8300000F0F80020435E4909684F
:102F000081F830005C48006890F830103120FFF7FD
:102F100019FA10BD10B504460C2C01DD0C2402E09A
:102F2000062C00DA0624062C03D10520FFF7D7FF74
:102F300002E00320FFF7D3FF4F4801681E311E2037
:102F4000FFF723FA4C480068807F64F31F104A495A
:102F50000968887748480068817F1E20FFF7F2F9EA
:102F60004348847110BD10B5434801681E311E20CE
:102F7000FFF70BFA40480068807F00113C498871D8
:102F80000846807910BD10B504463B4801681D31E4
:102F90001D20FFF7FAF938480068407F00F0F10083
:102FA00040EA440034490968487733480068417F63
:102FB0001D20FFF7C7F92E48C47110BD10B52E486B
:102FC00001681D311D20FFF7E0F92B480068407FA4
:102FD00020F0F10040102649C8710846C07910BDA4
:102FE00010B50446244801681E311E20FFF7CDF9B4
:102FF00021480068807F00F0FB0040EA84001E4901
:10300000096888771C480068817F1E20FFF79AF9BD
:103010001748047210BD10B5044602221648016814
:1030200020312020FFF796F9200A1349096881F81A
:1030300020001149096881F8214002220E480168E8
:1030400020312020FFF764F910BD10B502220A4894
:10305000016820312020FFF77DF90748006890F8CB
:1030600021100548006890F8200041EA002010BDBA
:103070008000002080844E409C00002010B5C44891
:1030800001681E311E20FFF780F9C1480068807F6B
:1030900000F004004010BF4908720846007A10BDD5
:1030A00010B50446BA4801681D311D20FFF76DF9BF
:1030B000B7480068407F00F0FE002043B44909682B
:1030C0004877B3480068417F1D20FFF73BF9B148BE
:1030D000447210BD10B5AE4801681D311D20FFF7C8
:1030E00054F9AB480068407F00F00100A9494872DC
:1030F0000846407A10BDA74988727047A548807A73
:103100007047A449C8727047A248C07A704710B58A
:1031100004469F48006880F824409D48006890F865
:1031200024102420FFF70EF99A48047310BD10B53F
:103130009748016824312420FFF727F99448006854
:1031400090F82400934908730846007B10BD91490C
:10315000086170478F48006970478E494861704721
:103160008C484069704710B504468948006880F86B
:1031700022408748006890F822102220FFF7E2F8EA
:103180008448047610BD10B58148016822312220A0
:10319000FFF7FBF87E48006890F822007D4908762A
:1031A0000846007E10BD10B50446794801684931D3
:1031B0004D20FFF7EAF87648016809310920FFF74A
:1031C000E4F873480068407A00F08000802807D156
:1031D000012C0AD187206E49096881F8490004E072
:1031E00084206B49096881F849006948006890F8B3
:1031F00049104D20FFF7A6F810BD10B564480168CE
:1032000049314D20FFF7C1F86148006890F8490046
:1032100000F00700072801D1012010BD0020FCE7C5
:1032200010B504465A48016809310920FFF7ADF886
:1032300057480068407A00F07F00204354490968ED
:10324000487253480068417A0920FFF77BF810BDA7
:1032500010B54F48016809310920FFF796F84C482E
:103260000068407A20F07F0010BD10B50446484841
:1032700001680A310A20FFF788F845480068807A1B
:1032800000F0F00024F0F001084341490968887219
:103290003F480068817A0A20FFF754F810BD10B546
:1032A0003B4801680A310A20FFF76FF83848006888
:1032B000807A20F0F00010BD10B504460222344898
:1032C00001681E311E20FFF745F831480068807FF5
:1032D00000F0FC006FF0FC0101EA242108432C49B6
:1032E000096888772A490968CC770222284801684A
:1032F0001E311E20FFF70CF810BD10B50222244825
:1033000001681E311E20FFF725F821480068C07FA4
:103310001F490968897F21F0FC0140EA012010BDA6
:1033200010B504461A48016826312620FFF72DF80B
:103330001748006890F8260000F0F70040EAC40043
:103340001349096881F826001148006890F8261092
:103350002620FEF7F7FF10BD10B50D480168263195
:103360002620FFF712F80A48006890F82600C0F3FC
:10337000C00010BD10B50648016830313120FFF79C
:1033800004F80348006890F8300000F0070010BD12
:103390009C000020800000207FB505460C460121DE
:1033A000022000F06AFDADF80850ADF8044000209E
:1033B000ADF80A00ADF8060001A93B4800F088FE10
:1033C00001221146384801F0FAF91D208DF800005D
:1033D00000208DF8010003208DF8020001208DF8F7
:1033E0000300684600F0B7F901212F4801F0CCF93D
:1033F0007FBD10B501212C4801F08FFC40B10121A7
:10340000294801F09BFC29480068401C27490860B6
:1034100010BD7FB505460C460121042000F02DFDAE
:10342000ADF80850ADF804400020ADF80A00ADF842
:10343000060001A91E4800F04BFE012211461C485F
:1034400001F0BDF91E208DF8000000208DF801006C
:1034500002208DF8020001208DF80300684600F07C
:103460007AF90021124801F08FF97FBD10B50121D2
:103470000F4801F052FCA8B101210D4801F05EFC9B
:103480000C48007870B10C480088401E0A4908803A
:103490000846008830B90020084908700021044817
:1034A00001F072F910BD000000040040C0000020CF
:1034B00000080040EC000020EE000020ED0000209D
:1034C00010B56FF0040000F090F92E4800682E4906
:1034D000B0FBF1F02D4908700846007800EB400180
:1034E000C1EBC0104FF6FF7101EAC0002849088007
:1034F00010BD0146254A12784A434FF0E0235A6135
:1035000000229A611A46126942F001021A6100BF54
:103510004FF0E022106900F001021AB100F480328D
:10352000002AF5D04FF0E022126922F001024FF09C
:10353000E0231A6100229A6170470146144A1288FA
:103540004A434FF0E0235A6100229A611A461269F9
:1035500042F001021A6100BF4FF0E022106900F052
:1035600001021AB100F48032002AF5D04FF0E022B7
:10357000126922F001024FF0E0231A6100229A61E1
:10358000704700000800002000127A00C4000020EC
:10359000C6000020014600BF704700BF574A12888E
:1035A00002F04002002AF9D0C2B2544B1B1D1A800F
:1035B000704710B586B00446012144F2040000F0C3
:1035C0004FFC4FF40070ADF8140003208DF8160086
:1035D00018208DF8170005A9494800F085F94FF427
:1035E0008060ADF8140004208DF8170005A9444848
:1035F00000F07AF925208DF8000003208DF80100F5
:103600008DF8020001208DF80300684600F0A3F851
:1036100001940020ADF80800ADF80A00ADF80C00E8
:10362000ADF810000C20ADF80E0001A9334801F0F0
:10363000CCFB012240F22551304801F05EFC012113
:103640002E4801F04EFC06B010BD10B540F22551D9
:103650002A4801F037FD10B3284801F0B3FCC4B28A
:103660002848008800F40040C8B92648008800F4C3
:10367000804060B10A2C03D000202249088020E05D
:103680002048008840F400401E49088019E00D2CB5
:1036900006D11C48008840F480401A49088010E098
:1036A00018480088C0F30D0017490C5415480088CD
:1036B000401C1449088008460088C72801DD002006
:1036C000088010BD10B5044600BF80210B4801F0F2
:1036D000E3FC0028F9D02146084801F06FFC10BD3A
:1036E00070B505460E46002400BF04E0285DFFF7D4
:1036F000E9FF601C84B2B442F8DB70BD00380140C1
:1037000000080140CC0000207505002009488047D2
:1037100009480047FEE7FEE7FEE7FEE7FEE7FEE7B3
:10372000FEE7FEE7FEE7FEE704480549054A064BCB
:103730007047000083090008310100084809002093
:10374000480F0020480B0020480B0020314901435E
:10375000314A1160704770B5002100230F22C478F0
:1037600004B32D4C246804F4E064C4F5E064210A39
:10377000C1F10403CA40447804FA03F18478144088
:1037800021430901254C0678A155047804F01F0552
:103790000124AC4005786D11AD0005F1E025C5F8B8
:1037A000004109E0047804F01F050124AC401C4DE1
:1037B0000678761145F8264070BD1A4A0A40024341
:1037C000154B1B1F1A60704739B1134A121D12683E
:1037D0000243114B1B1D1A6006E00F4A121D1268AE
:1037E00082430D4B1B1D1A607047042808D14FF00F
:1037F000E021096941F004014FF0E022116107E086
:103800004FF0E021096921F004014FF0E02211613D
:10381000704700000000FA050CED00E000E400E055
:1038200080E100E080FFFF1F10B50446CC488442D1
:1038300008D10121042000F02DFB0021042000F01C
:1038400029FB46E0C748844208D10121082000F046
:1038500021FB0021082000F01DFB3AE0C248844211
:1038600008D10121102000F015FB0021102000F0EC
:1038700011FB2EE0BD48844208D10121202000F038
:1038800009FB0021202000F005FB22E0B84884421B
:1038900008D10121402000F0FDFA0021402000F075
:1038A000F9FA16E0B348844208D10121802000F0E3
:1038B000F1FA0021802000F0EDFA0AE0AE488442DF
:1038C00007D10121801500F0E5FA0021A01500F0D4
:1038D000E1FA10BD10B50121084600F0DBFA002125
:1038E000012000F0D7FA10BD2DE9F0410246002575
:1038F0000026002000230024002791F803C00CF0CC
:103900000F0591F803C00CF0100CBCF1000F03D0B0
:1039100091F802C04CEA050591F800C0BCF1000F17
:1039200031D0146800202BE04FF0010C0CFA00F3AA
:10393000B1F800C00CEA03069E4220D183004FF08C
:103940000F0C0CFA03F7BC4305FA03FC4CEA040421
:1039500091F803C0BCF1280F06D14FF0010C0CFA0E
:1039600000FCC2F814C00AE091F803C0BCF1480F93
:1039700005D14FF0010C0CFA00FCC2F810C0401C3D
:103980000828D1D31460B1F800C0BCF1FF0F34DDBA
:10399000546800202EE000F1080C4FF0010808FAEE
:1039A0000CF3B1F800C00CEA03069E4221D183005B
:1039B0004FF00F0C0CFA03F7BC4305FA03FC4CEA7A
:1039C000040491F803C0BCF1280F05D100F1080CE4
:1039D00008FA0CF8C2F8148091F803C0BCF1480F43
:1039E00007D100F1080C4FF0010808FA0CF8C2F8F2
:1039F0001080401C0828CED35460BDE8F0814FF6FB
:103A0000FF710180022181700421C170704702465C
:103A1000002093680B400BB1012000E000207047AC
:103A20000146886880B2704702460020D3680B4088
:103A30000BB1012000E0002070470146C86880B249
:103A4000704701617047416170470AB1016100E050
:103A500041617047C16070474FF480320A43826110
:103A60008161826182698269704702460020434B0E
:103A700018684FF68073184040EA021008433F4B25
:103A8000186070473E49C8617047F0B50A46002388
:103A900000240021002500F00046B6F1004F02D1BD
:103AA000364EF16901E0354E7168C0F3034583B2CB
:103AB00000F44016B6F5401F08D121F070612F4E7A
:103AC000766826F070662D4F7E6012E000F4801656
:103AD000B6F5801F06D1032606FA05F4A14341F08E
:103AE000706106E0460D360103FA06F6B14341F077
:103AF000706122B1460D360103FA06F6314300F03B
:103B00000046B6F1004F02D11C4EF16101E01B4EA0
:103B10007160F0BD30B500228B071C0F0F2303FA34
:103B200004F2164B08338C1053F824309343134C93
:103B300008348D1044F8253023468C1053F8243077
:103B40008C07240F00FA04F423430C4C08348D1026
:103B500044F8253030BD0A49DC3108607047000068
:103B600000080140000C0140001001400014014019
:103B700000180140001C01400020014000000140ED
:103B800000002042DF48006840F00100DD49086085
:103B900008464068DC490840DA4948600846006841
:103BA000DA490840D74908600846006820F48020B8
:103BB00008600846406820F4FE0048604FF41F008B
:103BC00088607047CF49096821F48031CD4A11607F
:103BD0001146096821F480211160B0F5803F03D0BF
:103BE000B0F5802F0ED106E0C649096841F4803156
:103BF000C44A116007E0C349096841F4A021C14AE1
:103C0000116000E000BF00BF704710B50146002200
:103C1000002300204A11012A02D1BA4C236806E091
:103C2000022A02D1B74C236A01E0B64C636A01F064
:103C30001F02012494401C400CB1012000E0002030
:103C400010BD38B5002000900024002500BF3120B1
:103C5000FFF7DBFF05460098401C00900098B0F588
:103C6000A06F01D0002DF2D03120FFF7CEFF08B1B8
:103C7000012400E00024204638BD01460020A14A6E
:103C8000106820F0F80040EAC10010607047A049B9
:103C900008607047024600209A4B586820F47C1058
:103CA00042EA01031843974B5860704798490866E9
:103CB000704701460020934A506820F003000843F3
:103CC000506070478F48406800F00C007047014614
:103CD00000208C4A506820F0F00008435060704784
:103CE00001460020874A506820F4E0600843506095
:103CF000704701460020834A506820F4605040EA33
:103D0000C1005060704729B17E4A527A02437D4B10
:103D10005A7204E07B4A527A82437A4B5A72704755
:103D20007B49D8310860704701460020754A5068C9
:103D300020F440400843506070470021714A20320F
:103D40001170704A82F82010012802D004280AD18C
:103D500004E001216B4A2032117005E00521694A17
:103D60002032117000E000BF00BF70476949086051
:103D700070476449096A0143624A116270476549A4
:103D800044390860704730B5002100220024002328
:103D90005C4D6D6805F00C0121B1042905D008299E
:103DA00023D105E05C4D056022E05B4D05601FE01E
:103DB000544D6D6805F47012524D6D6805F48034F1
:103DC000022505EB92421CB9544D554305600BE0AA
:103DD0004C4D6D6805F400351DB1504D55430560DF
:103DE00002E04D4D5543056002E04B4D056000BFBC
:103DF00000BF444D6D6805F0F0010909484D6B5C4A
:103E00000568DD4045603F4D6D6805F4E061090AD5
:103E1000434D6B5C4568DD4085603A4D6D6805F447
:103E20006051C90A3E4D6B5C4568DD40C560354D4B
:103E30006D6805F44041890B3A4D6B5CC568B5FB74
:103E4000F3F5056130BD29B12E4A526902432D4B6D
:103E50005A6104E02B4A526982432A4B5A617047E7
:103E600029B1284A92690243264B9A6104E0254A07
:103E700092698243234B9A61704729B1214AD269E2
:103E80000243204BDA6104E01E4AD26982431D4B93
:103E9000DA61704729B11B4AD2680243194BDA60D4
:103EA00004E0184AD2688243164BDA60704729B1A1
:103EB000144A12690243134B1A6104E0114A126951
:103EC0008243104B1A6170471249403908607047AD
:103ED0000F49C86470470B49C87170470948406A68
:103EE00040F0807007494862704701460020054A4B
:103EF00092680A400AB1012000E0002070470149A1
:103F000088727047001002400000FFF8FFFFF6FEC5
:103F1000000042428004424200127A0000093D0043
:103F2000CE000020DE00002010B50446FE4884428A
:103F300008D10121C014FFF7ADFF0021E014FFF705
:103F4000A9FFC4E0B4F1804F08D101210846FFF772
:103F5000AEFF00210120FFF7AAFFB8E0F34884423A
:103F600008D101210220FFF7A2FF00210220FFF764
:103F70009EFFACE0EE48844208D101210420FFF707
:103F800096FF00210420FFF792FFA0E0E948844259
:103F900008D101210820FFF78AFF00210820FFF740
:103FA00086FF94E0E448844208D101211020FFF705
:103FB0007EFF00211020FFF77AFF88E0DF4884426F
:103FC00008D101212020FFF772FF00212020FFF7F8
:103FD0006EFF7CE0DA48844208D101214014FFF7EB
:103FE00059FF00216014FFF755FF70E0D548844267
:103FF00009D10121C804FFF74DFF00214FF4002033
:10400000FFF748FF63E0D048844209D10121080549
:10401000FFF740FF00214FF48010FFF73BFF56E011
:10402000CA48844209D101214805FFF733FF002126
:104030004FF40010FFF72EFF49E0C548844208D135
:1040400001214020FFF733FF00214020FFF72FFF21
:104050003DE0C048844208D101218020FFF727FFBE
:1040600000218020FFF723FF31E0BB48844208D1C4
:1040700001218015FFF71BFF0021A015FFF717FF97
:1040800025E0B648844209D101210804FFF702FF68
:1040900000214FF48030FFF7FDFE18E0B048844265
:1040A00009D101214804FFF7F5FE00214FF400304B
:1040B000FFF7F0FE0BE0AB48844208D101218804F1
:1040C000FFF7E8FE00214FF48020FFF7E3FE10BD6C
:1040D00000220288944B98420ED0994B98420BD004
:1040E000B0F1804F08D0914B984205D0904B984248
:1040F00002D0904B984204D14FF68F731A404B88F0
:104100001A438D4B984207D08C4B984204D04FF6FF
:10411000FF431A40CB881A4302808B8883850B8823
:104120000385814B98420BD0854B984208D08B4B2E
:10413000984205D08A4B984202D08A4B984201D1CE
:104140000B7A038601238382704770B50024002216
:104150000023058C4FF6FE7635400584028C83885B
:10416000048B4FF68F752C40B51E2C400D882C43C8
:10417000751E2A400D892A434D882A436A4DA8425C
:104180000BD06F4DA84208D0744DA84205D0744D95
:10419000A84202D0734DA84213D14FF6F7752A40BA
:1041A0004D892A434FF6FB752A408D882A434FF6E6
:1041B000FF652B404FF6FF552B408D892B43CD8952
:1041C0002B4383800483CD888586028470BD70B5BF
:1041D000002400220023058C4FF6EF76354005843D
:1041E000028C8388048B48F6FF752C404FF6FF4500
:1041F0002C400D884FF6FF7606EA05252C434FF636
:10420000DF752A400D8906EA05152A434D8806EA1E
:1042100005152A43444DA84202D0494DA8421DD15C
:104220004FF67F752A404D894FF6FF7606EA051551
:104230002A434FF6BF752A408D8806EA05152A43A2
:104240004FF6FF352B404FF2FF752B408D8906EA64
:1042500085052B43CD8906EA85052B43838004839E
:10426000CD880587028470BD70B50024002200232C
:10427000058C4FF6FF6635400584028C8388848B5D
:104280004FF68F752C404FF6FC752C400D882C4353
:104290004FF6FF552A400D894FF6FF7606EA0525B1
:1042A0002A434D8806EA05252A431F4DA84202D01D
:1042B000234DA8421DD14FF2FF752A404D894FF67C
:1042C000FF7606EA05252A434FF6FF352A408D88FA
:1042D00006EA05252A434EF6FF752B404DF6FF757D
:1042E0002B408D8906EA05152B43CD8906EA051575
:1042F0002B4383808483CD888587028470BD70B50D
:10430000002200230024058C4EF6FF7635400584FC
:10431000038C8488828B48F6FF752A404FF6FF4550
:104320002A400D8820E00000002C014000040040DD
:1043300000080040000C0040001000400014004045
:1043400000340140004C0140005001400054014045
:1043500000180040001C00400020004000400140C8
:1043600000440140004801404FF6FF7606EA05256B
:104370002A434DF6FF752B400D8906EA05352B4380
:104380004D8806EA05352B43FA4DA84202D0FA4D76
:10439000A84208D14BF6FF752C408D894FF6FF7669
:1043A00006EA85152C4384808283CD88A0F840508E
:1043B000038470BD828B4FF2FF331A408283828B5D
:1043C0004FF6FF7303EA01231A4382837047F0B567
:1043D0000C461546002200210026078C4EF6FF7C75
:1043E00007EA0C070784828B018C4FF6FF7707EAF8
:1043F000043640F6FF473A404FF6FF7707EA0527B5
:104400003A434FF6FF7707EA03373A43D94FB842AA
:104410000ED0D94FB8420BD0B0F1804F08D0D74F53
:10442000B84205D0D64FB84202D0D64FB84206D1D6
:104430004DF6FF77394046F48057394305E047F69B
:10444000FF57394044F48057394382830184F0BDDB
:10445000828B4FF6F3731A408283828B0A438283E6
:104460007047F0B50C461546002200210026078C47
:104470004FF6FF6C07EA0C070784828B018C4FF61E
:10448000FF7707EA04264FF60C773A404FF6FF779E
:1044900007EA03172F433A43B64FB8420ED0B64F40
:1044A000B8420BD0B0F1804F08D0B44FB84205D01D
:1044B000B34FB84202D0B34FB84206D14FF6FF57C0
:1044C000394046F48077394305E04FF2FF573940D1
:1044D00044F48077394382830184F0BD028B4FF22C
:1044E000FF331A400283028B4FF6FF7303EA012366
:1044F0001A4302837047F0B50C461546002200218E
:104500000026078C4FF6EF7C07EA0C070784028B26
:10451000018C4FF6FF7707EA041640F6FF473A4052
:104520004FF6FF7707EA03373A434FF6FF7707EA7C
:1045300005273A438F4FB8420ED08F4FB8420BD069
:10454000B0F1804F08D08D4FB84205D08C4FB842A3
:1045500002D08C4FB84206D14FF6DF77394046F093
:104560001007394305E04FF65F77394044F01007F4
:10457000394302830184F0BD028B4FF6F3731A4076
:104580000283028B0A4302837047F0B50C4615463E
:1045900000220021068C4FF6FE773E400684028BF7
:1045A000018C4FF60C7632407E1C06EA03162E4331
:1045B0003243704EB0420ED06F4EB0420BD0B0F1CD
:1045C000804F08D06D4EB04205D06D4EB04202D043
:1045D0006C4EB04206D14FF6FD76314044F00106F4
:1045E000314305E04FF6F576314044F001063143A2
:1045F00002830184F0BD70B505460C465D488542D6
:104600000ED05D4885420BD0B5F1804F08D05B4895
:10461000854205D05A48854202D05A48854200D189
:1046200000E000BF208850B92389A288618828460D
:10463000FFF7ABFFE1882846FFF79EFF25E02088C3
:1046400004280AD12389A28861882846FFF753FFEE
:10465000E1882846FFF742FF17E0208808280AD1A2
:104660002389A28861882846FFF7FBFEE188284657
:10467000FFF7EEFE09E02389A28861882846FFF74C
:10468000A6FEE1882846FFF795FE70BD2DE9F041B2
:1046900005460C4600260127608808B9022600E07E
:1046A0000026A088012801D1022700E001272088E8
:1046B000A0B92389A28861882846FFF766FFE188B0
:1046C0002846FFF759FF23893A4631462846FFF727
:1046D00012FFE1882846FFF701FF13E02389A28833
:1046E00061882846FFF707FFE1882846FFF7F6FEB6
:1046F00023893A4631462846FFF747FFE188284696
:10470000FFF73AFFBDE8F0810A884B881A438B888F
:104710001A43CB881A430B891A434B891A438B8956
:104720001A43A0F8442070474FF6FF7181800021A2
:104730000180C18041800172704700210180418069
:104740008180C180018141818181C18170470021C7
:1047500001804180012181800021C1800181704759
:104760000021018041808180C1800181418181815E
:1047700070470000002C014000340140000400405C
:1047800000080040000C004021B1028842F0010204
:10479000028004E002884FF6FE731A4002807047E0
:1047A00031B1B0F8442042F40042A0F8442005E0C2
:1047B000B0F84420C2F30E02A0F8442070471AB1AA
:1047C00083890B43838102E083898B438381704714
:1047D0008182704741EA0203A0F8483070471AB15D
:1047E00083890B43838102E083898B4383817047F4
:1047F00001894FF6F8721140018170470A46002185
:1048000001894FF68F73194011430181704730B50C
:1048100004460D4629462046FFF7F0FF208940F068
:104820000700208130BD2DE9F04104460D461646B3
:104830001F46602D06D13B46012231462046FFF738
:104840005AFE05E03B46012231462046FFF79DFE19
:1048500029462046FFF7D2FF208940F0070020813B
:10486000BDE8F08130B50C4600210189C9B24FF690
:10487000FF7505EA0325154325432943018130BD12
:104880002DE9F04105460E4617469846002443465A
:104890003A4631462846FFF7E5FF2C894FF6F87077
:1048A000044044F007044FF68F70044044F0700455
:1048B0002C81BDE8F081F0B504460D4616461F4632
:1048C0003B46324629462046FFF7CCFF208940F47C
:1048D00080402081F0BD0185828270470A46002118
:1048E00001884FF68F731940114301807047F0B56E
:1048F0000C4615461E460021002200230189028B2A
:10490000038C4FF6F877394021434FF6FC473A4085
:1049100040F201173A434FF6DD773B404FF6FF7701
:1049200007EA06172F433B43018102830384F0BD4E
:104930000A460021018B4FF68F7319401143018302
:1049400070470A460021018B48F6FF7319404FF665
:10495000FF7303EA02231943018370470A460021CB
:10496000818B4FF68F7319401143818370470A463C
:104970000021818B48F6FF7319404FF6FF7303EA5D
:10498000022319438183704721B1028842F08002DB
:10499000028004E002884FF67F731A40028070475D
:1049A00021B1828842F00402828004E082884FF6BE
:1049B000FB731A408280704721B1828842F008025E
:1049C000828004E082884FF6F7731A408280704735
:1049D00021B1828842F00102828004E082884FF691
:1049E000FE731A40828070470A460021018B4FF601
:1049F000F77319401143018370470A460021018B68
:104A00004FF2FF7319404FF6FF7303EA0223194375
:104A1000018370470A460021818B4FF6F7731940D6
:104A20001143818370470A460021818B4FF2FF7347
:104A300019404FF6FF7303EA02231943818370473D
:104A40000A460021018B4FF6FB7319401143018385
:104A500070470A460021018B4FF6FF3319404FF68D
:104A6000FF7303EA02231943018370470A460021BA
:104A7000818B4FF6FB7319401143818370470A46BF
:104A80000021818B4FF6FF3319404FF6FF7303EA85
:104A900002231943818370470A460021018B4FF698
:104AA0007F7319401143018370470A460021018B2F
:104AB000C1F30E014FF6FF7303EA0223194301838A
:104AC00070470A460021818B4FF67F7319401143CE
:104AD000818370470A460021818BC1F30E014FF696
:104AE000FF7303EA02231943818370470A460021BA
:104AF000018C4FF6FD7319401143018470470A463B
:104B00000021018C4FF6F77319401143018470475F
:104B10000A460021018C4FF6DF7319404FF6FF73F0
:104B200003EA02131943018470470A460021018CED
:104B30004FF67F7319404FF6FF7303EA02131943D0
:104B4000018470470A460021018C4FF6FF5319403B
:104B50004FF6FF7303EA02231943018470470A46A4
:104B60000021018C4FF2FF7319404FF6FF7303EAE7
:104B700002231943018470470A460021018C4DF637
:104B8000FF7319404FF6FF7303EA023319430184A0
:104B9000704730B5002301248C40A3B2048C9C43A1
:104BA0000484048C02FA01F5ADB22C43048430BDB8
:104BB00030B5002304248C40A3B2048C9C430484AD
:104BC000048C02FA01F5ADB22C43048430BD70B5FB
:104BD0000346002000241846183001258D40ACB251
:104BE0001D8CA5431D8409B1082909D100EB610082
:104BF000056825F0700505600568154305600EE041
:104C00000D1FC5F34E052844056825F4E0450560F1
:104C100005684FF6FF7606EA02263543056070BD4B
:104C200021B1028842F00202028004E002884FF6BD
:104C3000FD731A400280704721B1028842F00402DD
:104C4000028004E002884FF6FB731A40028070472E
:104C500021B1828842F08002828004E082884FF68F
:104C60007F731A408280704702884FF6F7731A40AC
:104C7000028002880A430280704782884FF68F7351
:104C80001A40828082880A438280704702894FF6E8
:104C9000F8731A40028102890A430281704702892F
:104CA0004FF67F731A40028102890A4302817047DE
:104CB000818470478185704781867047018770477E
:104CC00081877047A0F84010704702884FF6FF4375
:104CD0001A40028002880A43028070470146888E8B
:104CE00070470146088F70470146888F704701461C
:104CF000B1F8400070470146888C70470146088D26
:104D0000704702460020138A0B400BB1012000E0DF
:104D100000207047CA430282704730B50246002027
:104D200000230024158A05EA0103958905EA010498
:104D300013B10CB1012000E0002030BDCA43028253
:104D40007047000010B50446FB48844209D1012198
:104D50008803FFF79FF800214FF48040FFF79AF88F
:104D600032E0F648844209D101214804FFF79FF858
:104D700000214FF40030FFF79AF825E0F048844214
:104D800009D101218804FFF792F800214FF4802017
:104D9000FFF78DF818E0EB48844209D10121C804DF
:104DA000FFF785F800214FF40020FFF780F80BE0B3
:104DB000E548844208D101210805FFF778F8002171
:104DC0004FF48010FFF773F810BD2DE9F04786B05F
:104DD00005460E460024A24600BFA1460027B08922
:104DE00000B100BF2F462C8A4CF6FF700440F088BB
:104DF00004432C82AC894EF6F3100440B08831890C
:104E00000843718908430443AC81AC8A4FF6FF40E4
:104E10000440B0890443AC8201A8FEF7B4FFC64841
:104E2000874202D1DDF810A001E0DDF80CA0A889CE
:104E300000F4004040B10AEBCA0000EB0A103168F0
:104E40004900B0FBF1F807E00AEBCA0000EB0A10DA
:104E500031688900B0FBF1F86420B8FBF0F0040180
:104E60002009642101FB1089A88900F4004040B1A9
:104E7000322000EBC900B0FBF1F000F00700044362
:104E800008E0322000EB09106421B0FBF1F000F0E3
:104E90000F0004432C8106B0BDE8F0874FF4165193
:104EA000016000218180C18001810C2141810021AC
:104EB0008181704710B502460020108A4FF2FF032F
:104EC00018400B884C8823438C882343CC88234389
:104ED0001843108210BD0021018041808180C18073
:104EE000704721B1828942F40052828104E08289B4
:104EF0004DF6FF731A4082817047F0B503460024D7
:104F000000260025002040F66A17B94200D100BFF4
:104F10001846C1F3421401F01F06012707FA06F5EF
:104F2000012C01D10C3004E0022C01D1103000E042
:104F300014301AB107682F43076002E00768AF43D7
:104F40000760F0BD1AB1838A0B43838202E0838A33
:104F50008B4383827047028A4FF6F0731A400282B5
:104F6000028A0A430282704782894FF2FF731A4015
:104F7000828182890A438281704721B1828942F00D
:104F80000202828104E082894FF6FD731A40828119
:104F90007047028A4FF6DF731A400282028A0A4380
:104FA0000282704721B1028A42F48042028204E008
:104FB000028A4BF6FF731A4002827047C1F308025F
:104FC0008280704701468888C0F308007047818955
:104FD00041F0010181817047028BD2B20283028BC2
:104FE00042EA012202837047028B02F47F4202836D
:104FF000028B0A430283704721B1828A42F0200269
:10500000828204E0828A4FF6DF731A408282704700
:1050100021B1828A42F01002828204E0828A4FF635
:10502000EF731A408282704721B1828A42F00802EF
:10503000828204E0828A4FF6F7731A4082827047B8
:1050400021B1828942F40042828103E08289C2F365
:105050000E028281704721B1828A42F4006282820C
:1050600004E0828A4FF2FF731A4082827047828A7C
:105070004FF6FB731A408282828A0A43828270470B
:1050800021B1828A42F00202828204E0828A4FF6D3
:10509000FD731A408282704702460020B1F5007FFE
:1050A00000D100BF13880B400BB1012000E00020AD
:1050B000704701F40072B2F5007F00D100BFCA430F
:1050C0000280704770B502460024002300250020AE
:1050D00040F66A16B14200D100BFC1F3421501F09B
:1050E0001F03012606FA03F3012D02D196893340EE
:1050F00006E0022D02D1168A334001E0968A334041
:105100000C12012606FA04F41688344013B10CB1CF
:10511000012000E0002070BD10B50022002340F601
:105120006A14A14200D100BF0A1201249440A3B224
:10513000DC43048010BD0000003801400044004002
:1051400000480040004C00400050004010B50446AC
:10515000BE48844208D101218014FEF79BFE002145
:10516000A014FEF797FE16E0B948844208D1012149
:105170000014FEF79CFE00212014FEF798FE0AE0C2
:10518000B448844207D10121C013FEF790FE0021EC
:10519000E013FEF78CFE10BD10B50022028802F469
:1051A00041520B884C8823438C882343CC8823436B
:1051B0000C8923434C8923438C892343CC89234383
:1051C0001A430280838B4FF2FF74234083830B8A40
:1051D000038210BD2DE9F04F85B005460C464FF017
:1051E000000902274FF000084FF0010B0026B246DD
:1051F000A88B4FF240010840A88302202884B5F80C
:105200001C90A068022801D100BF38E0A08810B926
:105210004FF0010B01E04FF0020B8D48854200D1A9
:1052200000E000BF6846FEF7AEFDDDF800A0E088B4
:10523000B0F5007F0AD14FEA1A2000EB8000400051
:10524000A168B0FBF1F0401D86B20BE04FEA4B10B5
:10525000BAFBF0F000EB80004000A168B0FBF1F079
:10526000401D86B20A20B6FBF0F606F00108A6EB58
:105270000800C0F34F074FF6FF7000EA0828022F1E
:1052800001DBFF2F02DD02274FF00008E08840EA33
:10529000080038432884A088A1890843618808430E
:1052A0002188084340F4006040EA0909A5F81C90F1
:1052B00005B0BDE8F08F0021018041808180C18070
:1052C000018141818181C1810721018270470021D3
:1052D000018041808180C180022181600021818123
:1052E000704721B1028842F04002028004E0028847
:1052F0004FF6BF731A400280704721B1828B42F48F
:105300008062828304E0828B4FF6FF331A408283EF
:10531000704730B5002400230C110125A540ABB225
:105320001AB185881D43858002E085889D4385806C
:1053300030BD1AB183880B43838002E083888B439E
:1053400083807047818170470146888970474FF696
:10535000FF62914204D0028842F48072028004E02D
:1053600002884FF6FF631A400280704721B182889D
:1053700042F00402828004E082884FF6FB731A40F8
:105380008280704702884FF2FF731A4002800288C1
:105390000A4302807047018841F4805101807047C0
:1053A00021B1028842F40052028004E002884DF6E6
:1053B000FF731A400280704702460020012901D085
:1053C000108B00E0908A70470146088A7047B1F55B
:1053D000804F04D1028842F48042028004E00288B7
:1053E0004BF6FF731A400280704702460020138973
:1053F0000B400BB1012000E000207047CA4302813E
:105400007047F0B50246002000240023002501F07B
:105410000F070126BE40B4B20B1101269E40B3B265
:10542000968806EA03051689264016B10DB10120BB
:1054300000E00020F0BD10B5002201F00F040123B0
:10544000A3409AB2D343038110BD00000030014055
:1054500000380040003C00400020704770B5042434
:1054600000260025DAA000F0DFFCE2A000F0DCFC62
:10547000E4A000F0D9FCE8A000F0D6FCECA000F01D
:10548000D3FC7DE0EE48008800F40040002877D08F
:10549000ECA1F04800F06CFD050014D0287BEE492B
:1054A000087008460178EDA000F0BEFC601EC4B292
:1054B000E3480088C0F30D01E64800F0FBFD002042
:1054C000DF4908805CE0ECA1E24800F051FD0500F6
:1054D00014D0287CED49087008460178ECA000F053
:1054E000A3FC601EC4B2D6480088C0F30D01D948A1
:1054F00000F0E0FD0020D249088041E0ECA1D54851
:1055000000F036FD050014D0687CEE4908700846AE
:105510000178EDA000F088FC601EC4B2C848008885
:10552000C0F30D01CB4800F0C5FD0020C449088040
:1055300026E0EDA1C74800F01BFD050012D0287B36
:10554000ED490870EDA000F06FFC601EC4B2BC48CD
:105550000088C0F30D01BF4800F0ACFD0020B84941
:1055600008800DE0E9A000F05FFCB5480088C0F3BA
:105570000D01B84800F09EFD0020B14908800025CB
:10558000002C7FF47FAFE8A000F04EFC70BD2DE949
:10559000F04104460D46002600272078682834D1C3
:1055A000681E205C162830D1012604E0A05D384436
:1055B000C7B2701CC6B2A81EB042F7DC205CB8426D
:1055C0001ED16078DD490870A0784870E078887056
:1055D0002079C87060790871A0794871E079887184
:1055E0000846827904F10801C01D00F01EFDA81EC6
:1055F000205CD24981F8070108468079BDE8F08136
:10560000CFA000F011FC0020F8E7D4A000F00CFCC3
:105610000020F3E770B504460D46012629462046D2
:10562000FBF705FC16E0FBF729FC022808D003284D
:1056300002D004280CD107E0D0A000F0F5FB08E070
:10564000D8A000F0F1FB04E00026FBF7D4FB00E05B
:1056500000BF00BF002EE6D170BD70B503460C46FA
:10566000154600220021002000261E605E609E601C
:1056700068261E70D44E36785E70D34EB6789E7013
:10568000D14E7678DE70D04EF6781E71CE4EB6785A
:105690001EB1CD4EB6785E7109E0CB4E76781EB164
:1056A000C94E76785E7102E0C74EF6785E719C71E5
:1056B000042C02D00A2C2BD113E00226DE719F4E5F
:1056C00076791E725D72012104E05E5C1644F2B2CE
:1056D0004E1CF1B20A29F8DB9A721626DE720C20F3
:1056E00018E00226DE71B94E36781E72B74E368843
:1056F00036125E72012104E05E5C1644F2B24E1C6A
:10570000F1B20A29F8DB9A721626DE720C2001E04B
:10571000002000BF00BF70BD10B504466078AA49E4
:105720004870A0788870084682784178A8A000F078
:105730007BFB002010BD2DE9F04104460027002529
:1057400000266078A049097888423FD120799E4997
:1057500009788842F9D1A07800282AD0A2789A48FE
:105760000178AAA000F060FBA078B449487100213C
:10577000B3480088801EB14A115401250EE0B0489C
:105780000088801EAD49085C495D0844C1B2AC4840
:105790000088801EA94A1154681CC5B2A848008818
:1057A000801EA842EBDCA6480188A448FFF732FF20
:1057B00018E2A0780028FBD1E0780128F8DBE07837
:1057C000FF28F5DAE278804801783BE162E10000E9
:1057D000C7EBC9E8D6C3BDDAB5E3D0C5CFA220C3B5
:1057E000FCC1EEB8F1CABDC8E7CFC23A2121210DF4
:1057F0000A00000061646472657373207365743A13
:10580000200D0A0066697273742072656C617920DC
:105810007365743A200D0A007365636F6E642072BD
:10582000656C6179207365743A200D0A00000000F0
:1058300067617465776179207365743A200D0A0099
:10584000CC00002061646472657373207365743AE0
:105850000000000075050020F2000020C9E8D6C352
:10586000BDDAB5E3B5D8D6B73A20256420CDEAB382
:10587000C9210D0A00000000666972737420726508
:105880006C6179207365743A00000000F300002019
:10589000C9E8D6C3D2BBBCB6BDDAB5E3B5D8D6B776
:1058A0003A20256420CDEAB3C9210D0A000000008A
:1058B0007365636F6E642072656C617920736574C3
:1058C0003A000000F4000020C9E8D6C3B6FEBCB61A
:1058D000BDDAB5E3B5D8D6B73A20256420CDEAB312
:1058E000C9210D0A000000006761746577617920A5
:1058F0007365743A00000000F5000020C9E8D6C3C3
:10590000CDF8B9D8CDEAB3C9210D0A00C3FCC1EE68
:10591000CEDEB7A8CAB6B1F0C7EBD6D8D0C2CAE4BB
:10592000C8EB2121210D0A00B1BEB5D8BDDAB5E31F
:10593000C9E8D6C3CDEAB3C9210D0A003D0600204F
:105940004C6F7261BDD3CAD5CAFDBEDDD0A3D1E90B
:10595000B3F6B4ED2121210D0A0000004C6F7261F5
:10596000BDD3CAD5CAFDBEDDB0FCCDB7B0FCCEB24A
:10597000B3F6B4ED2121210D0A00000052465F521A
:10598000585F54494D454F555420696E204C6F72F5
:10599000614D6573735F466F7277617264696E679C
:1059A0000D0A000052465F52585F444F4E45206931
:1059B0006E204C6F72614D6573735F466F727761D5
:1059C0007264696E670D0A00E3000020F000002099
:1059D000B4D3CDF8B9D8BDD3CAD5B5BDD1B0D6B73B
:1059E000D0C5CFA20D0AD2BBBCB6D6D0BCCCB5D8E0
:1059F000D6B73A25640D0AB6FEBCB6D6D0BCCCB537
:105A0000D8D6B73A25640D0A00000000B1BEBDDA51
:105A1000B5E3256420CAD5B5BDD2BBBCB6D6D0BCD3
:105A2000CCD0C5CFA220D7AAB7A2D6C1B6FEBCB6ED
:105A3000BDDAB5E32564200D0A00000061070020EF
:105A4000F60000209AA000F0EFF9E078A64948712E
:105A50000021A6480088801EA34A115401250EE0AB
:105A6000A2480088801EA049085C495D0844C1B274
:105A70009E480088801E9C4A1154681CC5B29B48F1
:105A80000088801EA842EBDC984801889648FFF702
:105A9000C1FDA7E0A07896490978884235D12079E0
:105AA00093490978884230D1E0780128F1DBE07829
:105AB000FF28EEDAE2788E4801788EA000F0B4F983
:105AC000E07889494871002188480088801E864A0C
:105AD000115401250EE085480088801E8249085C2B
